{
  "_format": "hh-sol-artifact-1",
  "contractName": "ORareNft",
  "sourceName": "contracts/tokens/ORareNft.sol",
  "abi": [
    {
      "inputs": [
        {
          "internalType": "string",
          "name": "uri",
          "type": "string"
        }
      ],
      "stateMutability": "nonpayable",
      "type": "constructor"
    },
    {
      "anonymous": false,
      "inputs": [
        {
          "indexed": true,
          "internalType": "address",
          "name": "account",
          "type": "address"
        },
        {
          "indexed": true,
          "internalType": "address",
          "name": "operator",
          "type": "address"
        },
        {
          "indexed": false,
          "internalType": "bool",
          "name": "approved",
          "type": "bool"
        }
      ],
      "name": "ApprovalForAll",
      "type": "event"
    },
    {
      "anonymous": false,
      "inputs": [
        {
          "indexed": true,
          "internalType": "address",
          "name": "gameContract",
          "type": "address"
        },
        {
          "indexed": false,
          "internalType": "bool",
          "name": "status",
          "type": "bool"
        }
      ],
      "name": "GameContractUpdated",
      "type": "event"
    },
    {
      "anonymous": false,
      "inputs": [
        {
          "indexed": true,
          "internalType": "address",
          "name": "previousOwner",
          "type": "address"
        },
        {
          "indexed": true,
          "internalType": "address",
          "name": "newOwner",
          "type": "address"
        }
      ],
      "name": "OwnershipTransferred",
      "type": "event"
    },
    {
      "anonymous": false,
      "inputs": [
        {
          "indexed": false,
          "internalType": "address",
          "name": "account",
          "type": "address"
        }
      ],
      "name": "Paused",
      "type": "event"
    },
    {
      "anonymous": false,
      "inputs": [
        {
          "indexed": true,
          "internalType": "address",
          "name": "owner",
          "type": "address"
        },
        {
          "indexed": false,
          "internalType": "uint256[]",
          "name": "ids_",
          "type": "uint256[]"
        },
        {
          "indexed": false,
          "internalType": "uint256[]",
          "name": "value",
          "type": "uint256[]"
        }
      ],
      "name": "TokenBatchBurned",
      "type": "event"
    },
    {
      "anonymous": false,
      "inputs": [
        {
          "indexed": true,
          "internalType": "address",
          "name": "to",
          "type": "address"
        },
        {
          "indexed": false,
          "internalType": "uint256[]",
          "name": "ids_",
          "type": "uint256[]"
        },
        {
          "indexed": false,
          "internalType": "uint256[]",
          "name": "value",
          "type": "uint256[]"
        },
        {
          "indexed": false,
          "internalType": "string[]",
          "name": "uri",
          "type": "string[]"
        }
      ],
      "name": "TokenBatchCreated",
      "type": "event"
    },
    {
      "anonymous": false,
      "inputs": [
        {
          "indexed": true,
          "internalType": "address",
          "name": "to",
          "type": "address"
        },
        {
          "indexed": false,
          "internalType": "uint256[]",
          "name": "ids_",
          "type": "uint256[]"
        },
        {
          "indexed": false,
          "internalType": "uint256[]",
          "name": "value",
          "type": "uint256[]"
        }
      ],
      "name": "TokenBatchMinted",
      "type": "event"
    },
    {
      "anonymous": false,
      "inputs": [
        {
          "indexed": true,
          "internalType": "address",
          "name": "to",
          "type": "address"
        },
        {
          "indexed": true,
          "internalType": "uint256",
          "name": "id",
          "type": "uint256"
        },
        {
          "indexed": false,
          "internalType": "uint256",
          "name": "value",
          "type": "uint256"
        }
      ],
      "name": "TokenBurned",
      "type": "event"
    },
    {
      "anonymous": false,
      "inputs": [
        {
          "indexed": true,
          "internalType": "address",
          "name": "to",
          "type": "address"
        },
        {
          "indexed": true,
          "internalType": "uint256",
          "name": "id",
          "type": "uint256"
        },
        {
          "indexed": false,
          "internalType": "uint256",
          "name": "initialSupply",
          "type": "uint256"
        },
        {
          "indexed": false,
          "internalType": "string",
          "name": "uri",
          "type": "string"
        }
      ],
      "name": "TokenCreated",
      "type": "event"
    },
    {
      "anonymous": false,
      "inputs": [
        {
          "indexed": true,
          "internalType": "address",
          "name": "to",
          "type": "address"
        },
        {
          "indexed": true,
          "internalType": "uint256",
          "name": "id",
          "type": "uint256"
        },
        {
          "indexed": false,
          "internalType": "uint256",
          "name": "value",
          "type": "uint256"
        }
      ],
      "name": "TokenMinted",
      "type": "event"
    },
    {
      "anonymous": false,
      "inputs": [
        {
          "indexed": true,
          "internalType": "uint256",
          "name": "id",
          "type": "uint256"
        },
        {
          "indexed": false,
          "internalType": "string",
          "name": "uri",
          "type": "string"
        }
      ],
      "name": "TokenURIUpdated",
      "type": "event"
    },
    {
      "anonymous": false,
      "inputs": [
        {
          "indexed": true,
          "internalType": "address",
          "name": "operator",
          "type": "address"
        },
        {
          "indexed": true,
          "internalType": "address",
          "name": "from",
          "type": "address"
        },
        {
          "indexed": true,
          "internalType": "address",
          "name": "to",
          "type": "address"
        },
        {
          "indexed": false,
          "internalType": "uint256[]",
          "name": "ids",
          "type": "uint256[]"
        },
        {
          "indexed": false,
          "internalType": "uint256[]",
          "name": "values",
          "type": "uint256[]"
        }
      ],
      "name": "TransferBatch",
      "type": "event"
    },
    {
      "anonymous": false,
      "inputs": [
        {
          "indexed": true,
          "internalType": "address",
          "name": "operator",
          "type": "address"
        },
        {
          "indexed": true,
          "internalType": "address",
          "name": "from",
          "type": "address"
        },
        {
          "indexed": true,
          "internalType": "address",
          "name": "to",
          "type": "address"
        },
        {
          "indexed": false,
          "internalType": "uint256",
          "name": "id",
          "type": "uint256"
        },
        {
          "indexed": false,
          "internalType": "uint256",
          "name": "value",
          "type": "uint256"
        }
      ],
      "name": "TransferSingle",
      "type": "event"
    },
    {
      "anonymous": false,
      "inputs": [
        {
          "indexed": false,
          "internalType": "string",
          "name": "value",
          "type": "string"
        },
        {
          "indexed": true,
          "internalType": "uint256",
          "name": "id",
          "type": "uint256"
        }
      ],
      "name": "URI",
      "type": "event"
    },
    {
      "anonymous": false,
      "inputs": [
        {
          "indexed": false,
          "internalType": "string",
          "name": "uri",
          "type": "string"
        }
      ],
      "name": "URIUpdated",
      "type": "event"
    },
    {
      "anonymous": false,
      "inputs": [
        {
          "indexed": false,
          "internalType": "address",
          "name": "account",
          "type": "address"
        }
      ],
      "name": "Unpaused",
      "type": "event"
    },
    {
      "inputs": [
        {
          "internalType": "address",
          "name": "account",
          "type": "address"
        },
        {
          "internalType": "uint256",
          "name": "id",
          "type": "uint256"
        }
      ],
      "name": "balanceOf",
      "outputs": [
        {
          "internalType": "uint256",
          "name": "",
          "type": "uint256"
        }
      ],
      "stateMutability": "view",
      "type": "function"
    },
    {
      "inputs": [
        {
          "internalType": "address[]",
          "name": "accounts",
          "type": "address[]"
        },
        {
          "internalType": "uint256[]",
          "name": "ids",
          "type": "uint256[]"
        }
      ],
      "name": "balanceOfBatch",
      "outputs": [
        {
          "internalType": "uint256[]",
          "name": "",
          "type": "uint256[]"
        }
      ],
      "stateMutability": "view",
      "type": "function"
    },
    {
      "inputs": [
        {
          "internalType": "address",
          "name": "owner_",
          "type": "address"
        },
        {
          "internalType": "uint256",
          "name": "id_",
          "type": "uint256"
        },
        {
          "internalType": "uint256",
          "name": "value_",
          "type": "uint256"
        }
      ],
      "name": "burn",
      "outputs": [
        {
          "internalType": "bool",
          "name": "",
          "type": "bool"
        }
      ],
      "stateMutability": "nonpayable",
      "type": "function"
    },
    {
      "inputs": [
        {
          "internalType": "address",
          "name": "owner_",
          "type": "address"
        },
        {
          "internalType": "uint256[]",
          "name": "ids_",
          "type": "uint256[]"
        },
        {
          "internalType": "uint256[]",
          "name": "values_",
          "type": "uint256[]"
        }
      ],
      "name": "burnBatch",
      "outputs": [
        {
          "internalType": "bool",
          "name": "",
          "type": "bool"
        }
      ],
      "stateMutability": "nonpayable",
      "type": "function"
    },
    {
      "inputs": [
        {
          "internalType": "address",
          "name": "to_",
          "type": "address"
        },
        {
          "internalType": "uint256",
          "name": "initialSupply_",
          "type": "uint256"
        },
        {
          "internalType": "string",
          "name": "uri_",
          "type": "string"
        },
        {
          "internalType": "bytes",
          "name": "data_",
          "type": "bytes"
        }
      ],
      "name": "create",
      "outputs": [
        {
          "internalType": "uint256",
          "name": "",
          "type": "uint256"
        }
      ],
      "stateMutability": "nonpayable",
      "type": "function"
    },
    {
      "inputs": [
        {
          "internalType": "address",
          "name": "to_",
          "type": "address"
        },
        {
          "internalType": "uint256[]",
          "name": "initialSupply_",
          "type": "uint256[]"
        },
        {
          "internalType": "string[]",
          "name": "uri_",
          "type": "string[]"
        },
        {
          "internalType": "bytes",
          "name": "data_",
          "type": "bytes"
        }
      ],
      "name": "createBatch",
      "outputs": [],
      "stateMutability": "nonpayable",
      "type": "function"
    },
    {
      "inputs": [
        {
          "internalType": "address",
          "name": "",
          "type": "address"
        }
      ],
      "name": "gameContracts",
      "outputs": [
        {
          "internalType": "bool",
          "name": "",
          "type": "bool"
        }
      ],
      "stateMutability": "view",
      "type": "function"
    },
    {
      "inputs": [
        {
          "internalType": "address",
          "name": "account_",
          "type": "address"
        }
      ],
      "name": "getAllTokensOwned",
      "outputs": [
        {
          "internalType": "uint256[]",
          "name": "",
          "type": "uint256[]"
        },
        {
          "internalType": "uint256[]",
          "name": "",
          "type": "uint256[]"
        }
      ],
      "stateMutability": "view",
      "type": "function"
    },
    {
      "inputs": [
        {
          "internalType": "address",
          "name": "account",
          "type": "address"
        },
        {
          "internalType": "address",
          "name": "operator",
          "type": "address"
        }
      ],
      "name": "isApprovedForAll",
      "outputs": [
        {
          "internalType": "bool",
          "name": "",
          "type": "bool"
        }
      ],
      "stateMutability": "view",
      "type": "function"
    },
    {
      "inputs": [
        {
          "internalType": "address",
          "name": "to_",
          "type": "address"
        },
        {
          "internalType": "uint256",
          "name": "id_",
          "type": "uint256"
        },
        {
          "internalType": "uint256",
          "name": "value_",
          "type": "uint256"
        },
        {
          "internalType": "bytes",
          "name": "data",
          "type": "bytes"
        }
      ],
      "name": "mint",
      "outputs": [
        {
          "internalType": "bool",
          "name": "",
          "type": "bool"
        }
      ],
      "stateMutability": "nonpayable",
      "type": "function"
    },
    {
      "inputs": [
        {
          "internalType": "address",
          "name": "to_",
          "type": "address"
        },
        {
          "internalType": "uint256[]",
          "name": "ids_",
          "type": "uint256[]"
        },
        {
          "internalType": "uint256[]",
          "name": "values_",
          "type": "uint256[]"
        },
        {
          "internalType": "bytes",
          "name": "data",
          "type": "bytes"
        }
      ],
      "name": "mintBatch",
      "outputs": [
        {
          "internalType": "bool",
          "name": "",
          "type": "bool"
        }
      ],
      "stateMutability": "nonpayable",
      "type": "function"
    },
    {
      "inputs": [],
      "name": "nextId",
      "outputs": [
        {
          "internalType": "uint256",
          "name": "",
          "type": "uint256"
        }
      ],
      "stateMutability": "view",
      "type": "function"
    },
    {
      "inputs": [],
      "name": "owner",
      "outputs": [
        {
          "internalType": "address",
          "name": "",
          "type": "address"
        }
      ],
      "stateMutability": "view",
      "type": "function"
    },
    {
      "inputs": [],
      "name": "paused",
      "outputs": [
        {
          "internalType": "bool",
          "name": "",
          "type": "bool"
        }
      ],
      "stateMutability": "view",
      "type": "function"
    },
    {
      "inputs": [],
      "name": "renounceOwnership",
      "outputs": [],
      "stateMutability": "nonpayable",
      "type": "function"
    },
    {
      "inputs": [
        {
          "internalType": "address",
          "name": "from",
          "type": "address"
        },
        {
          "internalType": "address",
          "name": "to",
          "type": "address"
        },
        {
          "internalType": "uint256[]",
          "name": "ids",
          "type": "uint256[]"
        },
        {
          "internalType": "uint256[]",
          "name": "amounts",
          "type": "uint256[]"
        },
        {
          "internalType": "bytes",
          "name": "data",
          "type": "bytes"
        }
      ],
      "name": "safeBatchTransferFrom",
      "outputs": [],
      "stateMutability": "nonpayable",
      "type": "function"
    },
    {
      "inputs": [
        {
          "internalType": "address",
          "name": "from",
          "type": "address"
        },
        {
          "internalType": "address",
          "name": "to",
          "type": "address"
        },
        {
          "internalType": "uint256",
          "name": "id",
          "type": "uint256"
        },
        {
          "internalType": "uint256",
          "name": "amount",
          "type": "uint256"
        },
        {
          "internalType": "bytes",
          "name": "data",
          "type": "bytes"
        }
      ],
      "name": "safeTransferFrom",
      "outputs": [],
      "stateMutability": "nonpayable",
      "type": "function"
    },
    {
      "inputs": [
        {
          "internalType": "address",
          "name": "operator",
          "type": "address"
        },
        {
          "internalType": "bool",
          "name": "approved",
          "type": "bool"
        }
      ],
      "name": "setApprovalForAll",
      "outputs": [],
      "stateMutability": "nonpayable",
      "type": "function"
    },
    {
      "inputs": [
        {
          "internalType": "address",
          "name": "gameContract_",
          "type": "address"
        },
        {
          "internalType": "bool",
          "name": "staus_",
          "type": "bool"
        }
      ],
      "name": "setGameContractStatus",
      "outputs": [],
      "stateMutability": "nonpayable",
      "type": "function"
    },
    {
      "inputs": [
        {
          "internalType": "bytes4",
          "name": "interfaceId",
          "type": "bytes4"
        }
      ],
      "name": "supportsInterface",
      "outputs": [
        {
          "internalType": "bool",
          "name": "",
          "type": "bool"
        }
      ],
      "stateMutability": "view",
      "type": "function"
    },
    {
      "inputs": [
        {
          "internalType": "uint256",
          "name": "id_",
          "type": "uint256"
        }
      ],
      "name": "tokenURI",
      "outputs": [
        {
          "internalType": "string",
          "name": "",
          "type": "string"
        }
      ],
      "stateMutability": "view",
      "type": "function"
    },
    {
      "inputs": [
        {
          "internalType": "uint256",
          "name": "id_",
          "type": "uint256"
        }
      ],
      "name": "totalSupply",
      "outputs": [
        {
          "internalType": "uint256",
          "name": "",
          "type": "uint256"
        }
      ],
      "stateMutability": "view",
      "type": "function"
    },
    {
      "inputs": [
        {
          "internalType": "address",
          "name": "newOwner",
          "type": "address"
        }
      ],
      "name": "transferOwnership",
      "outputs": [],
      "stateMutability": "nonpayable",
      "type": "function"
    },
    {
      "inputs": [
        {
          "internalType": "uint256",
          "name": "id_",
          "type": "uint256"
        },
        {
          "internalType": "string",
          "name": "newuri_",
          "type": "string"
        }
      ],
      "name": "updateTokenURI",
      "outputs": [],
      "stateMutability": "nonpayable",
      "type": "function"
    },
    {
      "inputs": [
        {
          "internalType": "string",
          "name": "newuri_",
          "type": "string"
        }
      ],
      "name": "updateURI",
      "outputs": [],
      "stateMutability": "nonpayable",
      "type": "function"
    },
    {
      "inputs": [
        {
          "internalType": "uint256",
          "name": "",
          "type": "uint256"
        }
      ],
      "name": "uri",
      "outputs": [
        {
          "internalType": "string",
          "name": "",
          "type": "string"
        }
      ],
      "stateMutability": "view",
      "type": "function"
    }
  ],
  "bytecode": "0x60806040523480156200001157600080fd5b50604051620034f7380380620034f783398101604081905262000034916200018c565b8062000040816200005d565b506003805460ff19169055620000563362000076565b50620002a4565b805162000072906002906020840190620000d0565b5050565b600380546001600160a01b03838116610100818102610100600160a81b031985161790945560405193909204169182907f8be0079c531659141344cd1fd0a4f28419497f9722a3daafe3b4186f6b6457e090600090a35050565b828054620000de9062000268565b90600052602060002090601f0160209004810192826200010257600085556200014d565b82601f106200011d57805160ff19168380011785556200014d565b828001600101855582156200014d579182015b828111156200014d57825182559160200191906001019062000130565b506200015b9291506200015f565b5090565b5b808211156200015b576000815560010162000160565b634e487b7160e01b600052604160045260246000fd5b60006020808385031215620001a057600080fd5b82516001600160401b0380821115620001b857600080fd5b818501915085601f830112620001cd57600080fd5b815181811115620001e257620001e262000176565b604051601f8201601f19908116603f011681019083821181831017156200020d576200020d62000176565b8160405282815288868487010111156200022657600080fd5b600093505b828410156200024a57848401860151818501870152928501926200022b565b828411156200025c5760008684830101525b98975050505050505050565b600181811c908216806200027d57607f821691505b6020821081036200029e57634e487b7160e01b600052602260045260246000fd5b50919050565b61324380620002b46000396000f3fe608060405234801561001057600080fd5b506004361061018d5760003560e01c8063729efebf116100de578063c30f4a5a11610097578063e985e9c511610071578063e985e9c514610397578063f242432a146103d3578063f2fde38b146103e6578063f5298aca146103f957600080fd5b8063c30f4a5a1461035e578063c87b56dd14610371578063e38e3b241461038457600080fd5b8063729efebf146102bb578063731133e9146102dc5780638da5cb5b146102ef578063a22cb46514610318578063b089a0c51461032b578063bd85b0391461033e57600080fd5b806343f79a8c1161014b57806361b8ce8c1161012557806361b8ce8c146102745780636b20c4541461027d5780636ddd474d14610290578063715018a6146102b357600080fd5b806343f79a8c146102365780634e1273f4146102495780635c975abb1461026957600080fd5b8062fdd58e1461019257806301ffc9a7146101b85780630e89341c146101db57806318e97fd1146101fb5780631f7fdffa146102105780632eb2c2d614610223575b600080fd5b6101a56101a03660046122f2565b61040c565b6040519081526020015b60405180910390f35b6101cb6101c6366004612332565b6104a3565b60405190151581526020016101af565b6101ee6101e9366004612356565b6104f5565b6040516101af91906123bc565b61020e610209366004612484565b610589565b005b6101cb61021e36600461255e565b610671565b61020e6102313660046125f6565b61085b565b61020e61024436600461272b565b6108f2565b61025c6102573660046127d5565b610c46565b6040516101af91906128d0565b60035460ff166101cb565b6101a560075481565b6101cb61028b3660046128e3565b610d6f565b6101cb61029e366004612956565b60066020526000908152604090205460ff1681565b61020e610e7b565b6102ce6102c9366004612956565b610eb7565b6040516101af929190612971565b6101cb6102ea36600461299f565b611091565b60035461010090046001600160a01b03166040516001600160a01b0390911681526020016101af565b61020e6103263660046129f3565b6111bc565b61020e6103393660046129f3565b6111cb565b6101a561034c366004612356565b60009081526004602052604090205490565b61020e61036c366004612a2f565b611253565b6101ee61037f366004612356565b6112c6565b6101a5610392366004612a6b565b6112e3565b6101cb6103a5366004612af4565b6001600160a01b03918216600090815260016020908152604080832093909416825291909152205460ff1690565b61020e6103e1366004612b27565b611453565b61020e6103f4366004612956565b6114da565b6101cb610407366004612b8b565b61157b565b60006001600160a01b03831661047d5760405162461bcd60e51b815260206004820152602b60248201527f455243313135353a2062616c616e636520717565727920666f7220746865207a60448201526a65726f206164647265737360a81b60648201526084015b60405180910390fd5b506000908152602081815260408083206001600160a01b03949094168352929052205490565b60006001600160e01b03198216636cdb3d1360e11b14806104d457506001600160e01b031982166303a24d0760e21b145b806104ef57506301ffc9a760e01b6001600160e01b03198316145b92915050565b60606002805461050490612bbe565b80601f016020809104026020016040519081016040528092919081815260200182805461053090612bbe565b801561057d5780601f106105525761010080835404028352916020019161057d565b820191906000526020600020905b81548152906001019060200180831161056057829003601f168201915b50505050509050919050565b6003546001600160a01b036101009091041633146105b95760405162461bcd60e51b815260040161047490612bf8565b60075482106106155760405162461bcd60e51b815260206004820152602260248201527f53657474696e672055524920666f72206e6f6e206578697374656e7420746f6b60448201526132b760f11b6064820152608401610474565b60008281526005602090815260409091208251610634928401906121c9565b50817f931f495b9a8e5d8e61946ea5d61e021f636cfe213a801f97589c18c152e408bd8260405161066591906123bc565b60405180910390a25050565b3360009081526006602052604081205460ff16806106b0575060035461010090046001600160a01b03166001600160a01b0316336001600160a01b0316145b6106cc5760405162461bcd60e51b815260040161047490612c2d565b825184511461071d5760405162461bcd60e51b815260206004820152601e60248201527f49647320616e642076616c756573206c656e677468206d69736d6174636800006044820152606401610474565b60005b84518110156108005760075485828151811061073e5761073e612c72565b6020026020010151106107935760405162461bcd60e51b815260206004820152601a60248201527f4d696e74696e67206e6f6e206578697374656e7420746f6b656e0000000000006044820152606401610474565b8381815181106107a5576107a5612c72565b6020026020010151600460008784815181106107c3576107c3612c72565b6020026020010151815260200190815260200160002060008282546107e89190612c9e565b909155508190506107f881612cb6565b915050610720565b5061080d8585858561162d565b846001600160a01b03167f975b10251631af0537a231daef9c6280fe469de096617cf778249f61cb60886e8585604051610848929190612971565b60405180910390a2506001949350505050565b6001600160a01b038516331480610877575061087785336103a5565b6108de5760405162461bcd60e51b815260206004820152603260248201527f455243313135353a207472616e736665722063616c6c6572206973206e6f74206044820152711bdddb995c881b9bdc88185c1c1c9bdd995960721b6064820152608401610474565b6108eb8585858585611787565b5050505050565b3360009081526006602052604090205460ff1680610931575060035461010090046001600160a01b03166001600160a01b0316336001600160a01b0316145b61094d5760405162461bcd60e51b815260040161047490612c2d565b8461099a5760405162461bcd60e51b815260206004820152601a60248201527f417267732061727261792063616e27742062652020656d7074790000000000006044820152606401610474565b84158015906109a857508483145b6109ed5760405162461bcd60e51b8152602060048201526016602482015275082e4cee640d8cadccee8d040c8dedce840dac2e8c6d60531b6044820152606401610474565b6007546000866001600160401b03811115610a0a57610a0a6123cf565b604051908082528060200260200182016040528015610a33578160200160208202803683370190505b50905060005b8151811015610b785782828281518110610a5557610a55612c72565b6020026020010181815250506000878783818110610a7557610a75612c72565b9050602002810190610a879190612ccf565b90501115610aec57827f6bb7ff708619ba0610cba295a58592e0451dee2622938c8755667688daf3529b888884818110610ac357610ac3612c72565b9050602002810190610ad59190612ccf565b604051610ae3929190612d3e565b60405180910390a25b868682818110610afe57610afe612c72565b9050602002810190610b109190612ccf565b6000858152600560205260409020610b2992909161224d565b50888882818110610b3c57610b3c612c72565b6000868152600460209081526040909120910292909201359091555082610b6281612cb6565b9350508080610b7090612cb6565b915050610a39565b50610beb89828a8a8080602002602001604051908101604052809392919081815260200183836020028082843760009201919091525050604080516020601f8c018190048102820181019092528a815292508a915089908190840183828082843760009201919091525061162d92505050565b81600781905550886001600160a01b03167f99560660bc023edcf92f7604bad1ba8c16bdc68b9e50a02aa4eb4bb5f251a21a828a8a8a8a604051610c33959493929190612d52565b60405180910390a2505050505050505050565b60608151835114610cab5760405162461bcd60e51b815260206004820152602960248201527f455243313135353a206163636f756e747320616e6420696473206c656e677468604482015268040dad2e6dac2e8c6d60bb1b6064820152608401610474565b600083516001600160401b03811115610cc657610cc66123cf565b604051908082528060200260200182016040528015610cef578160200160208202803683370190505b50905060005b8451811015610d6757610d3a858281518110610d1357610d13612c72565b6020026020010151858381518110610d2d57610d2d612c72565b602002602001015161040c565b828281518110610d4c57610d4c612c72565b6020908102919091010152610d6081612cb6565b9050610cf5565b509392505050565b60006001600160a01b038416331480610d8d5750610d8d84336103a5565b610da95760405162461bcd60e51b815260040161047490612e3d565b610db4848484611931565b60005b8351811015610e2d57828181518110610dd257610dd2612c72565b602002602001015160046000868481518110610df057610df0612c72565b602002602001015181526020019081526020016000206000828254610e159190612e90565b90915550819050610e2581612cb6565b915050610db7565b50836001600160a01b03167f47d6b76eb7b528d9210c10fd7d6d6d20982b39f6927928e79f37033ccb9521968484604051610e69929190612971565b60405180910390a25060019392505050565b6003546001600160a01b03610100909104163314610eab5760405162461bcd60e51b815260040161047490612bf8565b610eb56000611abf565b565b60608060008060006007546001600160401b03811115610ed957610ed96123cf565b604051908082528060200260200182016040528015610f02578160200160208202803683370190505b50905060005b600754811015610f6e57610f1c878261040c565b92506000610f2a888361040c565b1115610f5c5780828581518110610f4357610f43612c72565b602090810291909101015283610f5881612cb6565b9450505b80610f6681612cb6565b915050610f08565b506000836001600160401b03811115610f8957610f896123cf565b604051908082528060200260200182016040528015610fb2578160200160208202803683370190505b5090506000846001600160401b03811115610fcf57610fcf6123cf565b604051908082528060200260200182016040528015610ff8578160200160208202803683370190505b50905060005b858110156110835783818151811061101857611018612c72565b602002602001015183828151811061103257611032612c72565b60200260200101818152505061105489848381518110610d2d57610d2d612c72565b82828151811061106657611066612c72565b60209081029190910101528061107b81612cb6565b915050610ffe565b509097909650945050505050565b3360009081526006602052604081205460ff16806110d0575060035461010090046001600160a01b03166001600160a01b0316336001600160a01b0316145b6110ec5760405162461bcd60e51b815260040161047490612c2d565b600754841061113d5760405162461bcd60e51b815260206004820152601a60248201527f4d696e74696e67206e6f6e206578697374656e7420746f6b656e0000000000006044820152606401610474565b6000848152600460205260408120805485929061115b908490612c9e565b9091555061116d905085858585611b19565b83856001600160a01b03167f96234cb3d6c373a1aaa06497a540bc166d4b0359243a088eaf95e21d7253d0be856040516111a991815260200190565b60405180910390a3506001949350505050565b6111c7338383611bef565b5050565b6003546001600160a01b036101009091041633146111fb5760405162461bcd60e51b815260040161047490612bf8565b6001600160a01b038216600081815260066020908152604091829020805460ff191685151590811790915591519182527fa339a61dd1bc01ee8eb8d6131676752de8c9efa60e6259db7965a6df3c3770269101610665565b6003546001600160a01b036101009091041633146112835760405162461bcd60e51b815260040161047490612bf8565b61128c81611ccf565b7fe3afa94108b5f5e82e5f6e539d161ff4b5402a85f696c67b9768ec3ae54ce366816040516112bb91906123bc565b60405180910390a150565b600081815260056020526040902080546060919061050490612bbe565b3360009081526006602052604081205460ff1680611322575060035461010090046001600160a01b03166001600160a01b0316336001600160a01b0316145b61133e5760405162461bcd60e51b815260040161047490612c2d565b600754841561138257807f6bb7ff708619ba0610cba295a58592e0451dee2622938c8755667688daf3529b8787604051611379929190612d3e565b60405180910390a25b600081815260056020526040902061139b90878761224d565b506113de88828987878080601f016020809104026020016040519081016040528093929190818152602001838380828437600092019190915250611b1992505050565b600081815260046020526040812088905560078054916113fd83612cb6565b919050555080886001600160a01b03167f982356893a0e3295378991b6ae7b7d4b6867833c4e38d5b1ccdeb8bdd185f29e89898960405161144093929190612ea7565b60405180910390a3979650505050505050565b6001600160a01b03851633148061146f575061146f85336103a5565b6114cd5760405162461bcd60e51b815260206004820152602960248201527f455243313135353a2063616c6c6572206973206e6f74206f776e6572206e6f7260448201526808185c1c1c9bdd995960ba1b6064820152608401610474565b6108eb8585858585611ce2565b6003546001600160a01b0361010090910416331461150a5760405162461bcd60e51b815260040161047490612bf8565b6001600160a01b03811661156f5760405162461bcd60e51b815260206004820152602660248201527f4f776e61626c653a206e6577206f776e657220697320746865207a65726f206160448201526564647265737360d01b6064820152608401610474565b61157881611abf565b50565b60006001600160a01b038416331480611599575061159984336103a5565b6115b55760405162461bcd60e51b815260040161047490612e3d565b6115c0848484611dff565b600083815260046020526040812080548492906115de908490612e90565b909155505060405182815283906001600160a01b038616907fde3ca466246b0da455138dbea78dacd91d3c40dc98d5846ff0193bf67c24b0e79060200160405180910390a35060019392505050565b6001600160a01b0384166116535760405162461bcd60e51b815260040161047490612ec1565b81518351146116745760405162461bcd60e51b815260040161047490612f02565b3361168481600087878787611f00565b60005b845181101561171f578381815181106116a2576116a2612c72565b60200260200101516000808784815181106116bf576116bf612c72565b602002602001015181526020019081526020016000206000886001600160a01b03166001600160a01b0316815260200190815260200160002060008282546117079190612c9e565b9091555081905061171781612cb6565b915050611687565b50846001600160a01b031660006001600160a01b0316826001600160a01b03167f4a39dc06d4c0dbc64b70af90fd698a233a518aa5d07e595d983b8c0526c8f7fb8787604051611770929190612971565b60405180910390a46108eb81600087878787611f68565b81518351146117a85760405162461bcd60e51b815260040161047490612f02565b6001600160a01b0384166117ce5760405162461bcd60e51b815260040161047490612f4a565b336117dd818787878787611f00565b60005b84518110156118c35760008582815181106117fd576117fd612c72565b60200260200101519050600085838151811061181b5761181b612c72565b602090810291909101810151600084815280835260408082206001600160a01b038e16835290935291909120549091508181101561186b5760405162461bcd60e51b815260040161047490612f8f565b6000838152602081815260408083206001600160a01b038e8116855292528083208585039055908b168252812080548492906118a8908490612c9e565b92505081905550505050806118bc90612cb6565b90506117e0565b50846001600160a01b0316866001600160a01b0316826001600160a01b03167f4a39dc06d4c0dbc64b70af90fd698a233a518aa5d07e595d983b8c0526c8f7fb8787604051611913929190612971565b60405180910390a4611929818787878787611f68565b505050505050565b6001600160a01b0383166119575760405162461bcd60e51b815260040161047490612fd9565b80518251146119785760405162461bcd60e51b815260040161047490612f02565b600033905061199b81856000868660405180602001604052806000815250611f00565b60005b8351811015611a605760008482815181106119bb576119bb612c72565b6020026020010151905060008483815181106119d9576119d9612c72565b602090810291909101810151600084815280835260408082206001600160a01b038c168352909352919091205490915081811015611a295760405162461bcd60e51b81526004016104749061301c565b6000928352602083815260408085206001600160a01b038b1686529091529092209103905580611a5881612cb6565b91505061199e565b5060006001600160a01b0316846001600160a01b0316826001600160a01b03167f4a39dc06d4c0dbc64b70af90fd698a233a518aa5d07e595d983b8c0526c8f7fb8686604051611ab1929190612971565b60405180910390a450505050565b600380546001600160a01b03838116610100818102610100600160a81b031985161790945560405193909204169182907f8be0079c531659141344cd1fd0a4f28419497f9722a3daafe3b4186f6b6457e090600090a35050565b6001600160a01b038416611b3f5760405162461bcd60e51b815260040161047490612ec1565b33611b5f81600087611b50886120c3565b611b59886120c3565b87611f00565b6000848152602081815260408083206001600160a01b038916845290915281208054859290611b8f908490612c9e565b909155505060408051858152602081018590526001600160a01b0380881692600092918516917fc3d58168c5ae7397731d063d5bbf3d657854427343f4c083240f7aacaa2d0f62910160405180910390a46108eb8160008787878761210e565b816001600160a01b0316836001600160a01b031603611c625760405162461bcd60e51b815260206004820152602960248201527f455243313135353a2073657474696e6720617070726f76616c20737461747573604482015268103337b91039b2b63360b91b6064820152608401610474565b6001600160a01b03838116600081815260016020908152604080832094871680845294825291829020805460ff191686151590811790915591519182527f17307eab39ab6107e8899845ad3d59bd9653f200f220920489ca2b5937696c31910160405180910390a3505050565b80516111c79060029060208401906121c9565b6001600160a01b038416611d085760405162461bcd60e51b815260040161047490612f4a565b33611d18818787611b50886120c3565b6000848152602081815260408083206001600160a01b038a16845290915290205483811015611d595760405162461bcd60e51b815260040161047490612f8f565b6000858152602081815260408083206001600160a01b038b8116855292528083208785039055908816825281208054869290611d96908490612c9e565b909155505060408051868152602081018690526001600160a01b03808916928a821692918616917fc3d58168c5ae7397731d063d5bbf3d657854427343f4c083240f7aacaa2d0f62910160405180910390a4611df682888888888861210e565b50505050505050565b6001600160a01b038316611e255760405162461bcd60e51b815260040161047490612fd9565b33611e5481856000611e36876120c3565b611e3f876120c3565b60405180602001604052806000815250611f00565b6000838152602081815260408083206001600160a01b038816845290915290205482811015611e955760405162461bcd60e51b81526004016104749061301c565b6000848152602081815260408083206001600160a01b03898116808652918452828520888703905582518981529384018890529092908616917fc3d58168c5ae7397731d063d5bbf3d657854427343f4c083240f7aacaa2d0f62910160405180910390a45050505050565b60035460ff16156119295760405162461bcd60e51b815260206004820152602c60248201527f455243313135355061757361626c653a20746f6b656e207472616e736665722060448201526b1dda1a5b19481c185d5cd95960a21b6064820152608401610474565b6001600160a01b0384163b156119295760405163bc197c8160e01b81526001600160a01b0385169063bc197c8190611fac9089908990889088908890600401613060565b6020604051808303816000875af1925050508015611fe7575060408051601f3d908101601f19168201909252611fe4918101906130be565b60015b61209357611ff36130db565b806308c379a00361202c57506120076130f7565b80612012575061202e565b8060405162461bcd60e51b815260040161047491906123bc565b505b60405162461bcd60e51b815260206004820152603460248201527f455243313135353a207472616e7366657220746f206e6f6e20455243313135356044820152732932b1b2b4bb32b91034b6b83632b6b2b73a32b960611b6064820152608401610474565b6001600160e01b0319811663bc197c8160e01b14611df65760405162461bcd60e51b815260040161047490613180565b604080516001808252818301909252606091600091906020808301908036833701905050905082816000815181106120fd576120fd612c72565b602090810291909101015292915050565b6001600160a01b0384163b156119295760405163f23a6e6160e01b81526001600160a01b0385169063f23a6e619061215290899089908890889088906004016131c8565b6020604051808303816000875af192505050801561218d575060408051601f3d908101601f1916820190925261218a918101906130be565b60015b61219957611ff36130db565b6001600160e01b0319811663f23a6e6160e01b14611df65760405162461bcd60e51b815260040161047490613180565b8280546121d590612bbe565b90600052602060002090601f0160209004810192826121f7576000855561223d565b82601f1061221057805160ff191683800117855561223d565b8280016001018555821561223d579182015b8281111561223d578251825591602001919060010190612222565b506122499291506122c1565b5090565b82805461225990612bbe565b90600052602060002090601f01602090048101928261227b576000855561223d565b82601f106122945782800160ff1982351617855561223d565b8280016001018555821561223d579182015b8281111561223d5782358255916020019190600101906122a6565b5b8082111561224957600081556001016122c2565b80356001600160a01b03811681146122ed57600080fd5b919050565b6000806040838503121561230557600080fd5b61230e836122d6565b946020939093013593505050565b6001600160e01b03198116811461157857600080fd5b60006020828403121561234457600080fd5b813561234f8161231c565b9392505050565b60006020828403121561236857600080fd5b5035919050565b6000815180845260005b8181101561239557602081850181015186830182015201612379565b818111156123a7576000602083870101525b50601f01601f19169290920160200192915050565b60208152600061234f602083018461236f565b634e487b7160e01b600052604160045260246000fd5b601f8201601f191681016001600160401b038111828210171561240a5761240a6123cf565b6040525050565b600082601f83011261242257600080fd5b81356001600160401b0381111561243b5761243b6123cf565b604051612452601f8301601f1916602001826123e5565b81815284602083860101111561246757600080fd5b816020850160208301376000918101602001919091529392505050565b6000806040838503121561249757600080fd5b8235915060208301356001600160401b038111156124b457600080fd5b6124c085828601612411565b9150509250929050565b60006001600160401b038211156124e3576124e36123cf565b5060051b60200190565b600082601f8301126124fe57600080fd5b8135602061250b826124ca565b60405161251882826123e5565b83815260059390931b850182019282810191508684111561253857600080fd5b8286015b84811015612553578035835291830191830161253c565b509695505050505050565b6000806000806080858703121561257457600080fd5b61257d856122d6565b935060208501356001600160401b038082111561259957600080fd5b6125a5888389016124ed565b945060408701359150808211156125bb57600080fd5b6125c7888389016124ed565b935060608701359150808211156125dd57600080fd5b506125ea87828801612411565b91505092959194509250565b600080600080600060a0868803121561260e57600080fd5b612617866122d6565b9450612625602087016122d6565b935060408601356001600160401b038082111561264157600080fd5b61264d89838a016124ed565b9450606088013591508082111561266357600080fd5b61266f89838a016124ed565b9350608088013591508082111561268557600080fd5b5061269288828901612411565b9150509295509295909350565b60008083601f8401126126b157600080fd5b5081356001600160401b038111156126c857600080fd5b6020830191508360208260051b85010111156126e357600080fd5b9250929050565b60008083601f8401126126fc57600080fd5b5081356001600160401b0381111561271357600080fd5b6020830191508360208285010111156126e357600080fd5b60008060008060008060006080888a03121561274657600080fd5b61274f886122d6565b965060208801356001600160401b038082111561276b57600080fd5b6127778b838c0161269f565b909850965060408a013591508082111561279057600080fd5b61279c8b838c0161269f565b909650945060608a01359150808211156127b557600080fd5b506127c28a828b016126ea565b989b979a50959850939692959293505050565b600080604083850312156127e857600080fd5b82356001600160401b03808211156127ff57600080fd5b818501915085601f83011261281357600080fd5b81356020612820826124ca565b60405161282d82826123e5565b83815260059390931b850182019282810191508984111561284d57600080fd5b948201945b8386101561287257612863866122d6565b82529482019490820190612852565b9650508601359250508082111561288857600080fd5b506124c0858286016124ed565b600081518084526020808501945080840160005b838110156128c5578151875295820195908201906001016128a9565b509495945050505050565b60208152600061234f6020830184612895565b6000806000606084860312156128f857600080fd5b612901846122d6565b925060208401356001600160401b038082111561291d57600080fd5b612929878388016124ed565b9350604086013591508082111561293f57600080fd5b5061294c868287016124ed565b9150509250925092565b60006020828403121561296857600080fd5b61234f826122d6565b6040815260006129846040830185612895565b82810360208401526129968185612895565b95945050505050565b600080600080608085870312156129b557600080fd5b6129be856122d6565b9350602085013592506040850135915060608501356001600160401b038111156129e757600080fd5b6125ea87828801612411565b60008060408385031215612a0657600080fd5b612a0f836122d6565b915060208301358015158114612a2457600080fd5b809150509250929050565b600060208284031215612a4157600080fd5b81356001600160401b03811115612a5757600080fd5b612a6384828501612411565b949350505050565b60008060008060008060808789031215612a8457600080fd5b612a8d876122d6565b95506020870135945060408701356001600160401b0380821115612ab057600080fd5b612abc8a838b016126ea565b90965094506060890135915080821115612ad557600080fd5b50612ae289828a016126ea565b979a9699509497509295939492505050565b60008060408385031215612b0757600080fd5b612b10836122d6565b9150612b1e602084016122d6565b90509250929050565b600080600080600060a08688031215612b3f57600080fd5b612b48866122d6565b9450612b56602087016122d6565b9350604086013592506060860135915060808601356001600160401b03811115612b7f57600080fd5b61269288828901612411565b600080600060608486031215612ba057600080fd5b612ba9846122d6565b95602085013595506040909401359392505050565b600181811c90821680612bd257607f821691505b602082108103612bf257634e487b7160e01b600052602260045260246000fd5b50919050565b6020808252818101527f4f776e61626c653a2063616c6c6572206973206e6f7420746865206f776e6572604082015260600190565b60208082526025908201527f43616c6c6572206973206e6f742067616d6520636f6e7472616374206e6f722060408201526437bbb732b960d91b606082015260800190565b634e487b7160e01b600052603260045260246000fd5b634e487b7160e01b600052601160045260246000fd5b60008219821115612cb157612cb1612c88565b500190565b600060018201612cc857612cc8612c88565b5060010190565b6000808335601e19843603018112612ce657600080fd5b8301803591506001600160401b03821115612d0057600080fd5b6020019150368190038213156126e357600080fd5b81835281816020850137506000828201602090810191909152601f909101601f19169091010190565b602081526000612a63602083018486612d15565b606081526000612d656060830188612895565b8281036020848101919091528682526001600160fb1b03871115612d8857600080fd5b8660051b808983850137808301925050808201818584030160408601528086825260408401905060408760051b85010191508760005b88811015612e2c57858403603f190183528135368b9003601e19018112612de457600080fd5b8a0180356001600160401b03811115612dfc57600080fd5b8036038c1315612e0b57600080fd5b612e188682898501612d15565b955050509184019190840190600101612dbe565b50919b9a5050505050505050505050565b60208082526033908201527f4f526172654e66743a207472616e736665722063616c6c6572206973206e6f74604082015272081bdddb995c881b9bdc88185c1c1c9bdd9959606a1b606082015260800190565b600082821015612ea257612ea2612c88565b500390565b838152604060208201526000612996604083018486612d15565b60208082526021908201527f455243313135353a206d696e7420746f20746865207a65726f206164647265736040820152607360f81b606082015260800190565b60208082526028908201527f455243313135353a2069647320616e6420616d6f756e7473206c656e677468206040820152670dad2e6dac2e8c6d60c31b606082015260800190565b60208082526025908201527f455243313135353a207472616e7366657220746f20746865207a65726f206164604082015264647265737360d81b606082015260800190565b6020808252602a908201527f455243313135353a20696e73756666696369656e742062616c616e636520666f60408201526939103a3930b739b332b960b11b606082015260800190565b60208082526023908201527f455243313135353a206275726e2066726f6d20746865207a65726f206164647260408201526265737360e81b606082015260800190565b60208082526024908201527f455243313135353a206275726e20616d6f756e7420657863656564732062616c604082015263616e636560e01b606082015260800190565b6001600160a01b0386811682528516602082015260a06040820181905260009061308c90830186612895565b828103606084015261309e8186612895565b905082810360808401526130b2818561236f565b98975050505050505050565b6000602082840312156130d057600080fd5b815161234f8161231c565b600060033d11156130f45760046000803e5060005160e01c5b90565b600060443d10156131055790565b6040516003193d81016004833e81513d6001600160401b03816024840111818411171561313457505050505090565b828501915081518181111561314c5750505050505090565b843d87010160208285010111156131665750505050505090565b613175602082860101876123e5565b509095945050505050565b60208082526028908201527f455243313135353a204552433131353552656365697665722072656a656374656040820152676420746f6b656e7360c01b606082015260800190565b6001600160a01b03868116825285166020820152604081018490526060810183905260a0608082018190526000906132029083018461236f565b97965050505050505056fea2646970667358221220cbd5185ff48a7a671ab491079c1403eff0bdfb8507078bcb1e4ef9cfbc573b9164736f6c634300080d0033",
  "linkReferences": {},
  "deployedLinkReferences": {}
}