{
  "_format": "hh-sol-artifact-1",
  "contractName": "ORareGame",
  "sourceName": "contracts/oRareGame/ORareGame.sol",
  "abi": [
    {
      "inputs": [],
      "stateMutability": "nonpayable",
      "type": "constructor"
    },
    {
      "anonymous": false,
      "inputs": [
        {
          "indexed": false,
          "internalType": "address[]",
          "name": "accounts",
          "type": "address[]"
        }
      ],
      "name": "AdminAdded",
      "type": "event"
    },
    {
      "anonymous": false,
      "inputs": [
        {
          "indexed": false,
          "internalType": "address",
          "name": "previousAdmin",
          "type": "address"
        },
        {
          "indexed": false,
          "internalType": "address",
          "name": "newAdmin",
          "type": "address"
        }
      ],
      "name": "AdminChanged",
      "type": "event"
    },
    {
      "anonymous": false,
      "inputs": [
        {
          "indexed": false,
          "internalType": "address[]",
          "name": "accounts",
          "type": "address[]"
        }
      ],
      "name": "AdminRemoved",
      "type": "event"
    },
    {
      "anonymous": false,
      "inputs": [
        {
          "indexed": true,
          "internalType": "address",
          "name": "beacon",
          "type": "address"
        }
      ],
      "name": "BeaconUpgraded",
      "type": "event"
    },
    {
      "anonymous": false,
      "inputs": [
        {
          "indexed": true,
          "internalType": "address",
          "name": "owner",
          "type": "address"
        },
        {
          "indexed": true,
          "internalType": "uint256",
          "name": "dishId",
          "type": "uint256"
        },
        {
          "indexed": false,
          "internalType": "uint256[]",
          "name": "ingredients",
          "type": "uint256[]"
        },
        {
          "indexed": false,
          "internalType": "uint256[]",
          "name": "quantity",
          "type": "uint256[]"
        }
      ],
      "name": "DishCooked",
      "type": "event"
    },
    {
      "anonymous": false,
      "inputs": [
        {
          "indexed": false,
          "internalType": "uint256",
          "name": "dishId",
          "type": "uint256"
        },
        {
          "indexed": false,
          "internalType": "uint256[]",
          "name": "ingredients",
          "type": "uint256[]"
        },
        {
          "indexed": false,
          "internalType": "uint256[]",
          "name": "quantity",
          "type": "uint256[]"
        }
      ],
      "name": "DishCreated",
      "type": "event"
    },
    {
      "anonymous": false,
      "inputs": [
        {
          "indexed": true,
          "internalType": "uint256",
          "name": "dishId",
          "type": "uint256"
        },
        {
          "indexed": false,
          "internalType": "uint256[]",
          "name": "ingredients",
          "type": "uint256[]"
        },
        {
          "indexed": false,
          "internalType": "uint256[]",
          "name": "quantity",
          "type": "uint256[]"
        }
      ],
      "name": "DishRecipeUpdated",
      "type": "event"
    },
    {
      "anonymous": false,
      "inputs": [
        {
          "indexed": true,
          "internalType": "address",
          "name": "to",
          "type": "address"
        },
        {
          "indexed": true,
          "internalType": "address",
          "name": "token",
          "type": "address"
        },
        {
          "indexed": true,
          "internalType": "uint256",
          "name": "tokenId",
          "type": "uint256"
        },
        {
          "indexed": false,
          "internalType": "uint256",
          "name": "amount",
          "type": "uint256"
        }
      ],
      "name": "ERC1155TokensRecovered",
      "type": "event"
    },
    {
      "anonymous": false,
      "inputs": [
        {
          "indexed": true,
          "internalType": "address",
          "name": "to",
          "type": "address"
        },
        {
          "indexed": true,
          "internalType": "address",
          "name": "token",
          "type": "address"
        },
        {
          "indexed": false,
          "internalType": "uint256",
          "name": "amount",
          "type": "uint256"
        }
      ],
      "name": "ERC20TokensRecovered",
      "type": "event"
    },
    {
      "anonymous": false,
      "inputs": [
        {
          "indexed": false,
          "internalType": "uint256[]",
          "name": "dishId",
          "type": "uint256[]"
        }
      ],
      "name": "MultipleDishRecipeUpdated",
      "type": "event"
    },
    {
      "anonymous": false,
      "inputs": [
        {
          "indexed": true,
          "internalType": "address",
          "name": "previousOwner",
          "type": "address"
        },
        {
          "indexed": true,
          "internalType": "address",
          "name": "newOwner",
          "type": "address"
        }
      ],
      "name": "OwnershipTransferred",
      "type": "event"
    },
    {
      "anonymous": false,
      "inputs": [
        {
          "indexed": false,
          "internalType": "address",
          "name": "account",
          "type": "address"
        }
      ],
      "name": "Paused",
      "type": "event"
    },
    {
      "anonymous": false,
      "inputs": [
        {
          "indexed": false,
          "internalType": "address",
          "name": "account",
          "type": "address"
        }
      ],
      "name": "Unpaused",
      "type": "event"
    },
    {
      "anonymous": false,
      "inputs": [
        {
          "indexed": true,
          "internalType": "address",
          "name": "implementation",
          "type": "address"
        }
      ],
      "name": "Upgraded",
      "type": "event"
    },
    {
      "inputs": [
        {
          "internalType": "address[]",
          "name": "accounts_",
          "type": "address[]"
        }
      ],
      "name": "addAdmins",
      "outputs": [],
      "stateMutability": "nonpayable",
      "type": "function"
    },
    {
      "inputs": [
        {
          "internalType": "uint256",
          "name": "dishId_",
          "type": "uint256"
        },
        {
          "components": [
            {
              "internalType": "uint256[]",
              "name": "ingredients",
              "type": "uint256[]"
            },
            {
              "internalType": "uint256[]",
              "name": "quantity",
              "type": "uint256[]"
            }
          ],
          "internalType": "struct Recipe",
          "name": "recipe_",
          "type": "tuple"
        }
      ],
      "name": "addOrUpdateDishRecipe",
      "outputs": [],
      "stateMutability": "nonpayable",
      "type": "function"
    },
    {
      "inputs": [
        {
          "internalType": "uint256[]",
          "name": "dishIds_",
          "type": "uint256[]"
        },
        {
          "components": [
            {
              "internalType": "uint256[]",
              "name": "ingredients",
              "type": "uint256[]"
            },
            {
              "internalType": "uint256[]",
              "name": "quantity",
              "type": "uint256[]"
            }
          ],
          "internalType": "struct Recipe[]",
          "name": "recipies_",
          "type": "tuple[]"
        }
      ],
      "name": "addOrUpdateMultipleDishRecipe",
      "outputs": [],
      "stateMutability": "nonpayable",
      "type": "function"
    },
    {
      "inputs": [
        {
          "internalType": "address",
          "name": "",
          "type": "address"
        }
      ],
      "name": "admins",
      "outputs": [
        {
          "internalType": "bool",
          "name": "",
          "type": "bool"
        }
      ],
      "stateMutability": "view",
      "type": "function"
    },
    {
      "inputs": [
        {
          "internalType": "uint256",
          "name": "dishId_",
          "type": "uint256"
        },
        {
          "internalType": "address",
          "name": "owner_",
          "type": "address"
        },
        {
          "internalType": "bytes",
          "name": "data_",
          "type": "bytes"
        }
      ],
      "name": "cookDish",
      "outputs": [],
      "stateMutability": "nonpayable",
      "type": "function"
    },
    {
      "inputs": [
        {
          "internalType": "bool",
          "name": "locked_",
          "type": "bool"
        },
        {
          "internalType": "address",
          "name": "to_",
          "type": "address"
        },
        {
          "internalType": "uint256",
          "name": "initialSupply_",
          "type": "uint256"
        },
        {
          "internalType": "string",
          "name": "uri_",
          "type": "string"
        },
        {
          "internalType": "bytes",
          "name": "data_",
          "type": "bytes"
        },
        {
          "components": [
            {
              "internalType": "uint256[]",
              "name": "ingredients",
              "type": "uint256[]"
            },
            {
              "internalType": "uint256[]",
              "name": "quantity",
              "type": "uint256[]"
            }
          ],
          "internalType": "struct Recipe",
          "name": "recipe_",
          "type": "tuple"
        }
      ],
      "name": "createDish",
      "outputs": [],
      "stateMutability": "nonpayable",
      "type": "function"
    },
    {
      "inputs": [
        {
          "internalType": "uint256",
          "name": "",
          "type": "uint256"
        }
      ],
      "name": "dish",
      "outputs": [
        {
          "internalType": "bool",
          "name": "exist",
          "type": "bool"
        },
        {
          "internalType": "bool",
          "name": "isLocked",
          "type": "bool"
        },
        {
          "components": [
            {
              "internalType": "uint256[]",
              "name": "ingredients",
              "type": "uint256[]"
            },
            {
              "internalType": "uint256[]",
              "name": "quantity",
              "type": "uint256[]"
            }
          ],
          "internalType": "struct Recipe",
          "name": "recipe",
          "type": "tuple"
        }
      ],
      "stateMutability": "view",
      "type": "function"
    },
    {
      "inputs": [],
      "name": "getAllDishIds",
      "outputs": [
        {
          "internalType": "uint256[]",
          "name": "",
          "type": "uint256[]"
        }
      ],
      "stateMutability": "view",
      "type": "function"
    },
    {
      "inputs": [
        {
          "internalType": "uint256",
          "name": "dishId_",
          "type": "uint256"
        }
      ],
      "name": "getDishRecipe",
      "outputs": [
        {
          "internalType": "uint256[]",
          "name": "ingredients",
          "type": "uint256[]"
        },
        {
          "internalType": "uint256[]",
          "name": "quantity",
          "type": "uint256[]"
        }
      ],
      "stateMutability": "view",
      "type": "function"
    },
    {
      "inputs": [
        {
          "internalType": "address",
          "name": "owner_",
          "type": "address"
        },
        {
          "internalType": "address",
          "name": "oRareNft_",
          "type": "address"
        }
      ],
      "name": "initialize",
      "outputs": [],
      "stateMutability": "nonpayable",
      "type": "function"
    },
    {
      "inputs": [],
      "name": "oRareNft",
      "outputs": [
        {
          "internalType": "contract IORareNft",
          "name": "",
          "type": "address"
        }
      ],
      "stateMutability": "view",
      "type": "function"
    },
    {
      "inputs": [],
      "name": "owner",
      "outputs": [
        {
          "internalType": "address",
          "name": "",
          "type": "address"
        }
      ],
      "stateMutability": "view",
      "type": "function"
    },
    {
      "inputs": [],
      "name": "pauseContract",
      "outputs": [],
      "stateMutability": "nonpayable",
      "type": "function"
    },
    {
      "inputs": [],
      "name": "paused",
      "outputs": [
        {
          "internalType": "bool",
          "name": "",
          "type": "bool"
        }
      ],
      "stateMutability": "view",
      "type": "function"
    },
    {
      "inputs": [
        {
          "internalType": "address",
          "name": "to_",
          "type": "address"
        },
        {
          "internalType": "address",
          "name": "token_",
          "type": "address"
        },
        {
          "internalType": "uint256",
          "name": "amount_",
          "type": "uint256"
        }
      ],
      "name": "recoverERC20",
      "outputs": [],
      "stateMutability": "nonpayable",
      "type": "function"
    },
    {
      "inputs": [
        {
          "internalType": "address[]",
          "name": "accounts_",
          "type": "address[]"
        }
      ],
      "name": "removeAdmins",
      "outputs": [],
      "stateMutability": "nonpayable",
      "type": "function"
    },
    {
      "inputs": [
        {
          "internalType": "address",
          "name": "newOwner_",
          "type": "address"
        }
      ],
      "name": "transferOwnership",
      "outputs": [],
      "stateMutability": "nonpayable",
      "type": "function"
    },
    {
      "inputs": [],
      "name": "unpauseContract",
      "outputs": [],
      "stateMutability": "nonpayable",
      "type": "function"
    },
    {
      "inputs": [
        {
          "internalType": "uint256",
          "name": "dishId_",
          "type": "uint256"
        },
        {
          "internalType": "bool",
          "name": "status_",
          "type": "bool"
        }
      ],
      "name": "updateDishLock",
      "outputs": [],
      "stateMutability": "nonpayable",
      "type": "function"
    },
    {
      "inputs": [
        {
          "internalType": "address",
          "name": "newImplementation",
          "type": "address"
        }
      ],
      "name": "upgradeTo",
      "outputs": [],
      "stateMutability": "nonpayable",
      "type": "function"
    },
    {
      "inputs": [
        {
          "internalType": "address",
          "name": "newImplementation",
          "type": "address"
        },
        {
          "internalType": "bytes",
          "name": "data",
          "type": "bytes"
        }
      ],
      "name": "upgradeToAndCall",
      "outputs": [],
      "stateMutability": "payable",
      "type": "function"
    }
  ],
  "bytecode": "0x60a0604052306080523480156200001557600080fd5b50603754610100900460ff16620000335760375460ff16156200003d565b6200003d620000e2565b620000a55760405162461bcd60e51b815260206004820152602e60248201527f496e697469616c697a61626c653a20636f6e747261637420697320616c72656160448201526d191e481a5b9a5d1a585b1a5e995960921b606482015260840160405180910390fd5b603754610100900460ff16158015620000c8576037805461ffff19166101011790555b8015620000db576037805461ff00191690555b5062000106565b6000620000fa306200010060201b62001ca21760201c565b15905090565b3b151590565b60805161322d62000137600039600081816106a6015281816106e6015281816108fc015261093c015261322d6000f3fe60806040526004361061012a5760003560e01c80635c975abb116100ab5780639c54df641161006f5780639c54df641461034d578063b33712c51461036d578063e0b89e4c14610382578063efccef3d146103a2578063f2af17c7146103c2578063f2fde38b146103e457600080fd5b80635c975abb146102b757806366aeb780146102cf578063760801fc146102ef5780637ade45c31461030f5780638da5cb5b1461032f57600080fd5b8063439766ce116100f2578063439766ce14610208578063485cc9551461021d5780634f1ef2861461023d5780635264f49e14610250578063597a71221461028857600080fd5b806301d526af1461012f5780631171bda9146101665780633659cfe614610188578063377e11e0146101a8578063429b62e5146101c8575b600080fd5b34801561013b57600080fd5b5061014f61014a36600461261f565b610404565b60405161015d929190612673565b60405180910390f35b34801561017257600080fd5b506101866101813660046126b4565b61060c565b005b34801561019457600080fd5b506101866101a33660046126f0565b61069c565b3480156101b457600080fd5b506101866101c336600461270b565b610764565b3480156101d457600080fd5b506101f86101e33660046126f0565b60026020526000908152604090205460ff1681565b604051901515815260200161015d565b34801561021457600080fd5b506101866107d7565b34801561022957600080fd5b50610186610238366004612780565b61080b565b61018661024b36600461286a565b6108f2565b34801561025c57600080fd5b50600454610270906001600160a01b031681565b6040516001600160a01b03909116815260200161015d565b34801561029457600080fd5b506102a86102a336600461261f565b6109ab565b60405161015d939291906128b8565b3480156102c357600080fd5b50609d5460ff166101f8565b3480156102db57600080fd5b506101866102ea36600461290f565b610a83565b3480156102fb57600080fd5b5061018661030a366004612a58565b610b42565b34801561031b57600080fd5b5061018661032a366004612a95565b610e59565b34801561033b57600080fd5b50606a546001600160a01b0316610270565b34801561035957600080fd5b5061018661036836600461270b565b611255565b34801561037957600080fd5b506101866112bc565b34801561038e57600080fd5b5061018661039d366004612bb3565b6112ee565b3480156103ae57600080fd5b506101866103bd366004612c73565b6116e7565b3480156103ce57600080fd5b506103d7611b9e565b60405161015d9190612cca565b3480156103f057600080fd5b506101866103ff3660046126f0565b611bf6565b6000818152600160205260409020546060908190839060ff166104425760405162461bcd60e51b815260040161043990612cdd565b60405180910390fd5b6000848152600160208181526040808420815193018054606093810285018401835291840182815290928492849184018282801561049f57602002820191906000526020600020905b81548152602001906001019080831161048b575b50505050508152602001600182018054806020026020016040519081016040528092919081815260200182805480156104f757602002820191906000526020600020905b8154815260200190600101908083116104e3575b5050509190925250506004805460405163bd85b03960e01b81529182018990529293506000926001600160a01b0316915063bd85b03990602401602060405180830381865afa15801561054e573d6000803e3d6000fd5b505050506040513d601f19601f820116820180604052508101906105729190612d0a565b61057d906001612d39565b9050600061058c600183612d51565b610597906002612d68565b6105a2906001612d39565b905060005b8360200151518110156105f45781846020015182815181106105cb576105cb612d87565b602002602001018181516105df9190612d68565b905250806105ec81612d9d565b9150506105a7565b50826000015183602001519550955050505050915091565b606a546001600160a01b031633146106365760405162461bcd60e51b815260040161043990612db6565b61064a6001600160a01b0383168483611ca8565b816001600160a01b0316836001600160a01b03167f4050c48d70b976fd498520efd416e07e40ac8348f52015e03796efb47b5981998360405161068f91815260200190565b60405180910390a3505050565b6001600160a01b037f00000000000000000000000000000000000000000000000000000000000000001630036106e45760405162461bcd60e51b815260040161043990612deb565b7f00000000000000000000000000000000000000000000000000000000000000006001600160a01b0316610716611cfa565b6001600160a01b03161461073c5760405162461bcd60e51b815260040161043990612e37565b61074581611d28565b6040805160008082526020820190925261076191839190611d52565b50565b606a546001600160a01b0316331461078e5760405162461bcd60e51b815260040161043990612db6565b61079a82826000611e9d565b7fbc302ee0d426b6f39f889e747050982023133dfc8fc46d1848d8e182c06af7be82826040516107cb929190612e83565b60405180910390a15050565b606a546001600160a01b031633146108015760405162461bcd60e51b815260040161043990612db6565b610809611f85565b565b603754610100900460ff166108265760375460ff161561082a565b303b155b61088d5760405162461bcd60e51b815260206004820152602e60248201527f496e697469616c697a61626c653a20636f6e747261637420697320616c72656160448201526d191e481a5b9a5d1a585b1a5e995960921b6064820152608401610439565b603754610100900460ff161580156108af576037805461ffff19166101011790555b6108b7611ffa565b6108c083612031565b600480546001600160a01b0319166001600160a01b03841617905580156108ed576037805461ff00191690555b505050565b6001600160a01b037f000000000000000000000000000000000000000000000000000000000000000016300361093a5760405162461bcd60e51b815260040161043990612deb565b7f00000000000000000000000000000000000000000000000000000000000000006001600160a01b031661096c611cfa565b6001600160a01b0316146109925760405162461bcd60e51b815260040161043990612e37565b61099b82611d28565b6109a782826001611d52565b5050565b600160208181526000928352604092839020805484519382018054606094810286018501875295850186815260ff808416976101009094041695939491928492849190840182828015610a1d57602002820191906000526020600020905b815481526020019060010190808311610a09575b5050505050815260200160018201805480602002602001604051908101604052809291908181526020018280548015610a7557602002820191906000526020600020905b815481526020019060010190808311610a61575b505050505081525050905083565b609d5460ff1615610aa65760405162461bcd60e51b815260040161043990612ec4565b600082815260016020526040902054829060ff16610ad65760405162461bcd60e51b815260040161043990612cdd565b3360009081526002602052604090205460ff1680610afe5750606a546001600160a01b031633145b610b1a5760405162461bcd60e51b815260040161043990612eee565b5060009182526001602052604090912080549115156101000261ff0019909216919091179055565b609d5460ff1615610b655760405162461bcd60e51b815260040161043990612ec4565b3360009081526002602052604090205460ff1680610b8d5750606a546001600160a01b031633145b610ba95760405162461bcd60e51b815260040161043990612eee565b80515115801590610bc05750602081015151815151145b610bdc5760405162461bcd60e51b815260040161043990612f25565b6000828152600160205260409020805460ff16610cda57600480546040805163186e33a360e21b815290516001600160a01b03909216926361b8ce8c9282820192602092908290030181865afa158015610c3a573d6000803e3d6000fd5b505050506040513d601f19601f82011682018060405250810190610c5e9190612d0a565b8310610c9b5760405162461bcd60e51b815260206004820152600c60248201526b092dcecc2d8d2c840c8d2e6d60a31b6044820152606401610439565b805460ff1916600190811782556003805491820181556000527fc2575a0e9e593c00f959f8c92f12db2869c3395a3b0502d05e2516446f71f85b018390555b60005b825151811015610dda57600480546040805163186e33a360e21b815290516001600160a01b03909216926361b8ce8c9282820192602092908290030181865afa158015610d2e573d6000803e3d6000fd5b505050506040513d601f19601f82011682018060405250810190610d529190612d0a565b8351805183908110610d6657610d66612d87565b602002602001015110610d8b5760405162461bcd60e51b815260040161043990612f4d565b600083602001518281518110610da357610da3612d87565b602002602001015111610dc85760405162461bcd60e51b815260040161043990612f7a565b80610dd281612d9d565b915050610cdd565b508151805183916001840191610df79183916020909101906125bf565b506020828101518051610e1092600185019201906125bf565b5050825160208401516040518693507ff90cabb80547cf470cf297cbb0a2051cd0f9074009abe39333ee60d1e313942c92610e4c929091612673565b60405180910390a2505050565b609d5460ff1615610e7c5760405162461bcd60e51b815260040161043990612ec4565b3360009081526002602052604090205460ff1680610ea45750606a546001600160a01b031633145b610ec05760405162461bcd60e51b815260040161043990612eee565b8051825114610f0a5760405162461bcd60e51b8152602060048201526016602482015275082e4cee640d8cadccee8d040c8dedce840dac2e8c6d60531b6044820152606401610439565b6000610f29604051806040016040528060608152602001606081525090565b6000805b855181101561121657848181518110610f4857610f48612d87565b602002602001015192506000836000015151118015610f6d5750602083015151835151145b610f895760405162461bcd60e51b815260040161043990612f25565b60016000878381518110610f9f57610f9f612d87565b6020908102919091018101518252810191909152604001600020805490925060ff166110c857600480546040805163186e33a360e21b815290516001600160a01b03909216926361b8ce8c9282820192602092908290030181865afa15801561100c573d6000803e3d6000fd5b505050506040513d601f19601f820116820180604052508101906110309190612d0a565b86828151811061104257611042612d87565b6020026020010151106110865760405162461bcd60e51b815260206004820152600c60248201526b092dcecc2d8d2c840c8d2e6d60a31b6044820152606401610439565b815460ff1916600117825585516003908790839081106110a8576110a8612d87565b602090810291909101810151825460018101845560009384529190922001555b600093505b8251518410156111ca57600480546040805163186e33a360e21b815290516001600160a01b03909216926361b8ce8c9282820192602092908290030181865afa15801561111e573d6000803e3d6000fd5b505050506040513d601f19601f820116820180604052508101906111429190612d0a565b835180518690811061115657611156612d87565b60200260200101511061117b5760405162461bcd60e51b815260040161043990612f4d565b60008360200151858151811061119357611193612d87565b6020026020010151116111b85760405162461bcd60e51b815260040161043990612f7a565b836111c281612d9d565b9450506110cd565b82518051849160018501916111e69183916020909101906125bf565b5060208281015180516111ff92600185019201906125bf565b50905050808061120e90612d9d565b915050610f2d565b507fd2b7988b258f2a4b4720c0e87795a2d5c04eef5ca0905c6397d7837c2d2bd1c5856040516112469190612cca565b60405180910390a15050505050565b606a546001600160a01b0316331461127f5760405162461bcd60e51b815260040161043990612db6565b61128b82826001611e9d565b7f6e2ec61f3f6e11676f4885a93cf08ec3f6c54e783610709609ec4aca83efea4082826040516107cb929190612e83565b606a546001600160a01b031633146112e65760405162461bcd60e51b815260040161043990612db6565b610809612069565b609d5460ff16156113115760405162461bcd60e51b815260040161043990612ec4565b3360009081526002602052604090205460ff16806113395750606a546001600160a01b031633145b6113555760405162461bcd60e51b815260040161043990612eee565b8051511580159061136c5750602081015151815151145b6113885760405162461bcd60e51b815260040161043990612f25565b6000600460009054906101000a90046001600160a01b03166001600160a01b03166361b8ce8c6040518163ffffffff1660e01b8152600401602060405180830381865afa1580156113dd573d6000803e3d6000fd5b505050506040513d601f19601f820116820180604052508101906114019190612d0a565b905060005b82515181101561150357600480546040805163186e33a360e21b815290516001600160a01b03909216926361b8ce8c9282820192602092908290030181865afa158015611457573d6000803e3d6000fd5b505050506040513d601f19601f8201168201806040525081019061147b9190612d0a565b835180518390811061148f5761148f612d87565b6020026020010151106114b45760405162461bcd60e51b815260040161043990612f4d565b6000836020015182815181106114cc576114cc612d87565b6020026020010151116114f15760405162461bcd60e51b815260040161043990612f7a565b806114fb81612d9d565b915050611406565b506040805160608101825260018082528b1515602080840191825283850187815260008781528483529590952084518154935161ffff1990941690151561ff0019161761010093151593909302929092178255935180518051949592949193850192611574928492909101906125bf565b50602082810151805161158d92600185019201906125bf565b5050600380546001810182556000919091527fc2575a0e9e593c00f959f8c92f12db2869c3395a3b0502d05e2516446f71f85b018490555050600480546040516338e38ec960e21b81528493506001600160a01b039091169163e38e3b2491611602918d918d918d918d918d918d9101612fcd565b6020604051808303816000875af1158015611621573d6000803e3d6000fd5b505050506040513d601f19601f820116820180604052508101906116459190612d0a565b1461169d5760405162461bcd60e51b815260206004820152602260248201527f4e65774964206e6f7420657175616c20746f2070726573756d65642064697368604482015261125960f21b6064820152608401610439565b815160208301516040517f81cb69a1f86534a1219ea345d247e7d005179fd12dde9ef75fb54e3e0d4ecd05926116d4928592613015565b60405180910390a1505050505050505050565b609d5460ff161561170a5760405162461bcd60e51b815260040161043990612ec4565b600083815260016020526040902054839060ff1661173a5760405162461bcd60e51b815260040161043990612cdd565b6000848152600160205260409020548490610100900460ff16156117a05760405162461bcd60e51b815260206004820152601860248201527f446973682069732063757272656e746c79206c6f636b656400000000000000006044820152606401610439565b6001600160a01b03841633148061183457506004546001600160a01b031663e985e9c585336040516001600160e01b031960e085901b1681526001600160a01b03928316600482015291166024820152604401602060405180830381865afa158015611810573d6000803e3d6000fd5b505050506040513d601f19601f82011682018060405250810190611834919061304a565b61189d5760405162461bcd60e51b815260206004820152603460248201527f4f5261726547616d653a207472616e736665722063616c6c6572206973206e6f6044820152731d081bdddb995c881b9bdc88185c1c1c9bdd995960621b6064820152608401610439565b600085815260016020818152604080842081519301805460609381028501840183529184018281529092849284918401828280156118fa57602002820191906000526020600020905b8154815260200190600101908083116118e6575b505050505081526020016001820180548060200260200160405190810160405280929190818152602001828054801561195257602002820191906000526020600020905b81548152602001906001019080831161193e575b5050509190925250506004805460405163bd85b03960e01b81529182018a90529293506000926001600160a01b0316915063bd85b03990602401602060405180830381865afa1580156119a9573d6000803e3d6000fd5b505050506040513d601f19601f820116820180604052508101906119cd9190612d0a565b6119d8906001612d39565b905060006119e7600183612d51565b6119f2906002612d68565b6119fd906001612d39565b905060005b836020015151811015611a4f578184602001518281518110611a2657611a26612d87565b60200260200101818151611a3a9190612d68565b90525080611a4781612d9d565b915050611a02565b506004805484516020860151604051631ac8311560e21b81526001600160a01b0390931693636b20c45493611a8a938d939092909101613067565b6020604051808303816000875af1158015611aa9573d6000803e3d6000fd5b505050506040513d601f19601f82011682018060405250810190611acd919061304a565b506004805460405163731133e960e01b81526001600160a01b039091169163731133e991611b04918b918d916001918d91016130e3565b6020604051808303816000875af1158015611b23573d6000803e3d6000fd5b505050506040513d601f19601f82011682018060405250810190611b47919061304a565b5087876001600160a01b03167ffb2a3f2d09580725582fe73f7d0bc231f735c78f92082de9b2c462c6af03cc8185600001518660200151604051611b8c929190612673565b60405180910390a35050505050505050565b60606003805480602002602001604051908101604052809291908181526020018280548015611bec57602002820191906000526020600020905b815481526020019060010190808311611bd8575b5050505050905090565b606a546001600160a01b03163314611c205760405162461bcd60e51b815260040161043990612db6565b6001600160a01b038116611c465760405162461bcd60e51b815260040161043990613110565b606a546040516001600160a01b038084169216907f8be0079c531659141344cd1fd0a4f28419497f9722a3daafe3b4186f6b6457e090600090a3606a80546001600160a01b0319166001600160a01b0392909216919091179055565b3b151590565b604080516001600160a01b038416602482015260448082018490528251808303909101815260649091019091526020810180516001600160e01b031663a9059cbb60e01b1790526108ed9084906120e3565b7f360894a13ba1a3210667c828492db98dca3e2076cc3735a920a3ca505d382bbc546001600160a01b031690565b606a546001600160a01b031633146107615760405162461bcd60e51b815260040161043990612db6565b6000611d5c611cfa565b9050611d67846121b5565b600083511180611d745750815b15611d8557611d83848461225a565b505b7f4910fdfa16fed3260ed0e7147f7cc6da11a60208b5b9406d12a635614ffd9143805460ff16611e9657805460ff191660011781556040516001600160a01b0383166024820152611e0490869060440160408051601f198184030181529190526020810180516001600160e01b0316631b2ce7f360e11b17905261225a565b50805460ff19168155611e15611cfa565b6001600160a01b0316826001600160a01b031614611e8d5760405162461bcd60e51b815260206004820152602f60248201527f45524331393637557067726164653a207570677261646520627265616b73206660448201526e75727468657220757067726164657360881b6064820152608401610439565b611e9685612345565b5050505050565b60005b82811015611f7f576000848483818110611ebc57611ebc612d87565b9050602002016020810190611ed191906126f0565b6001600160a01b031603611f195760405162461bcd60e51b815260206004820152600f60248201526e496e76616c6964206164647265737360881b6044820152606401610439565b8160026000868685818110611f3057611f30612d87565b9050602002016020810190611f4591906126f0565b6001600160a01b031681526020810191909152604001600020805460ff191691151591909117905580611f7781612d9d565b915050611ea0565b50505050565b609d5460ff1615611fa85760405162461bcd60e51b815260040161043990612ec4565b609d805460ff191660011790557f62e78cea01bee320cd4e420270b5ea74000d11b0c9f74754ebdbfc544b05a258611fdd3390565b6040516001600160a01b03909116815260200160405180910390a1565b603754610100900460ff166120215760405162461bcd60e51b815260040161043990613156565b612029612385565b610809612385565b603754610100900460ff166120585760405162461bcd60e51b815260040161043990613156565b612060612385565b610761816123ac565b609d5460ff166120b25760405162461bcd60e51b815260206004820152601460248201527314185d5cd8589b194e881b9bdd081c185d5cd95960621b6044820152606401610439565b609d805460ff191690557f5db9ee0a495bf2e6ff9c91a7834c1ba4fdd244a5e8aa4e537bd38aeae4b073aa33611fdd565b6000612138826040518060400160405280602081526020017f5361666545524332303a206c6f772d6c6576656c2063616c6c206661696c6564815250856001600160a01b03166124459092919063ffffffff16565b8051909150156108ed5780806020019051810190612156919061304a565b6108ed5760405162461bcd60e51b815260206004820152602a60248201527f5361666545524332303a204552433230206f7065726174696f6e20646964206e6044820152691bdd081cdd58d8d9595960b21b6064820152608401610439565b803b6122195760405162461bcd60e51b815260206004820152602d60248201527f455243313936373a206e657720696d706c656d656e746174696f6e206973206e60448201526c1bdd08184818dbdb9d1c9858dd609a1b6064820152608401610439565b7f360894a13ba1a3210667c828492db98dca3e2076cc3735a920a3ca505d382bbc80546001600160a01b0319166001600160a01b0392909216919091179055565b6060823b6122b95760405162461bcd60e51b815260206004820152602660248201527f416464726573733a2064656c65676174652063616c6c20746f206e6f6e2d636f6044820152651b9d1c9858dd60d21b6064820152608401610439565b600080846001600160a01b0316846040516122d491906131a1565b600060405180830381855af49150503d806000811461230f576040519150601f19603f3d011682016040523d82523d6000602084013e612314565b606091505b509150915061233c82826040518060600160405280602781526020016131d16027913961245e565b95945050505050565b61234e816121b5565b6040516001600160a01b038216907fbc7cd75a20ee27fd9adebab32041f755214dbc6bffa90cc0225b39da2e5c2d3b90600090a250565b603754610100900460ff166108095760405162461bcd60e51b815260040161043990613156565b603754610100900460ff166123d35760405162461bcd60e51b815260040161043990613156565b6001600160a01b0381166123f95760405162461bcd60e51b815260040161043990613110565b606a80546001600160a01b0319166001600160a01b0383169081179091556040516000907f8be0079c531659141344cd1fd0a4f28419497f9722a3daafe3b4186f6b6457e0908290a350565b60606124548484600085612497565b90505b9392505050565b6060831561246d575081612457565b82511561247d5782518084602001fd5b8160405162461bcd60e51b815260040161043991906131bd565b6060824710156124f85760405162461bcd60e51b815260206004820152602660248201527f416464726573733a20696e73756666696369656e742062616c616e636520666f6044820152651c8818d85b1b60d21b6064820152608401610439565b843b6125465760405162461bcd60e51b815260206004820152601d60248201527f416464726573733a2063616c6c20746f206e6f6e2d636f6e74726163740000006044820152606401610439565b600080866001600160a01b0316858760405161256291906131a1565b60006040518083038185875af1925050503d806000811461259f576040519150601f19603f3d011682016040523d82523d6000602084013e6125a4565b606091505b50915091506125b482828661245e565b979650505050505050565b8280548282559060005260206000209081019282156125fa579160200282015b828111156125fa5782518255916020019190600101906125df565b5061260692915061260a565b5090565b5b80821115612606576000815560010161260b565b60006020828403121561263157600080fd5b5035919050565b600081518084526020808501945080840160005b838110156126685781518752958201959082019060010161264c565b509495945050505050565b6040815260006126866040830185612638565b828103602084015261233c8185612638565b80356001600160a01b03811681146126af57600080fd5b919050565b6000806000606084860312156126c957600080fd5b6126d284612698565b92506126e060208501612698565b9150604084013590509250925092565b60006020828403121561270257600080fd5b61245782612698565b6000806020838503121561271e57600080fd5b823567ffffffffffffffff8082111561273657600080fd5b818501915085601f83011261274a57600080fd5b81358181111561275957600080fd5b8660208260051b850101111561276e57600080fd5b60209290920196919550909350505050565b6000806040838503121561279357600080fd5b61279c83612698565b91506127aa60208401612698565b90509250929050565b634e487b7160e01b600052604160045260246000fd5b604051601f8201601f1916810167ffffffffffffffff811182821017156127f2576127f26127b3565b604052919050565b600082601f83011261280b57600080fd5b813567ffffffffffffffff811115612825576128256127b3565b612838601f8201601f19166020016127c9565b81815284602083860101111561284d57600080fd5b816020850160208301376000918101602001919091529392505050565b6000806040838503121561287d57600080fd5b61288683612698565b9150602083013567ffffffffffffffff8111156128a257600080fd5b6128ae858286016127fa565b9150509250929050565b831515815282151560208201526060604082015260008251604060608401526128e460a0840182612638565b90506020840151605f198483030160808501526125b48282612638565b801515811461076157600080fd5b6000806040838503121561292257600080fd5b82359150602083013561293481612901565b809150509250929050565b600067ffffffffffffffff821115612959576129596127b3565b5060051b60200190565b600082601f83011261297457600080fd5b813560206129896129848361293f565b6127c9565b82815260059290921b840181019181810190868411156129a857600080fd5b8286015b848110156129c357803583529183019183016129ac565b509695505050505050565b6000604082840312156129e057600080fd5b6040516040810167ffffffffffffffff8282108183111715612a0457612a046127b3565b816040528293508435915080821115612a1c57600080fd5b612a2886838701612963565b83526020850135915080821115612a3e57600080fd5b50612a4b85828601612963565b6020830152505092915050565b60008060408385031215612a6b57600080fd5b82359150602083013567ffffffffffffffff811115612a8957600080fd5b6128ae858286016129ce565b60008060408385031215612aa857600080fd5b823567ffffffffffffffff80821115612ac057600080fd5b612acc86838701612963565b9350602091508185013581811115612ae357600080fd5b8501601f81018713612af457600080fd5b8035612b026129848261293f565b81815260059190911b82018401908481019089831115612b2157600080fd5b8584015b83811015612b5957803586811115612b3d5760008081fd5b612b4b8c89838901016129ce565b845250918601918601612b25565b508096505050505050509250929050565b60008083601f840112612b7c57600080fd5b50813567ffffffffffffffff811115612b9457600080fd5b602083019150836020828501011115612bac57600080fd5b9250929050565b60008060008060008060008060c0898b031215612bcf57600080fd5b8835612bda81612901565b9750612be860208a01612698565b965060408901359550606089013567ffffffffffffffff80821115612c0c57600080fd5b612c188c838d01612b6a565b909750955060808b0135915080821115612c3157600080fd5b612c3d8c838d01612b6a565b909550935060a08b0135915080821115612c5657600080fd5b50612c638b828c016129ce565b9150509295985092959890939650565b600080600060608486031215612c8857600080fd5b83359250612c9860208501612698565b9150604084013567ffffffffffffffff811115612cb457600080fd5b612cc0868287016127fa565b9150509250925092565b6020815260006124576020830184612638565b602080825260139082015272111a5cda08191bd95cc81b9bdd08195e1a5cdd606a1b604082015260600190565b600060208284031215612d1c57600080fd5b5051919050565b634e487b7160e01b600052601160045260246000fd5b60008219821115612d4c57612d4c612d23565b500190565b600082821015612d6357612d63612d23565b500390565b6000816000190483118215151615612d8257612d82612d23565b500290565b634e487b7160e01b600052603260045260246000fd5b600060018201612daf57612daf612d23565b5060010190565b6020808252818101527f4f776e61626c653a2063616c6c6572206973206e6f7420746865206f776e6572604082015260600190565b6020808252602c908201527f46756e6374696f6e206d7573742062652063616c6c6564207468726f7567682060408201526b19195b1959d85d1958d85b1b60a21b606082015260800190565b6020808252602c908201527f46756e6374696f6e206d7573742062652063616c6c6564207468726f7567682060408201526b6163746976652070726f787960a01b606082015260800190565b60208082528181018390526000908460408401835b868110156129c3576001600160a01b03612eb184612698565b1682529183019190830190600101612e98565b60208082526010908201526f14185d5cd8589b194e881c185d5cd95960821b604082015260600190565b6020808252601d908201527f43616c6c6572206973206e6f742061646d696e206e6f72206f776e6572000000604082015260600190565b6020808252600e908201526d496e76616c69642072656369706560901b604082015260600190565b602080825260139082015272496e76616c696420696e6772656469656e747360681b604082015260600190565b60208082526010908201526f496e76616c6964207175616e7469747960801b604082015260600190565b81835281816020850137506000828201602090810191909152601f909101601f19169091010190565b60018060a01b0387168152856020820152608060408201526000612ff5608083018688612fa4565b8281036060840152613008818587612fa4565b9998505050505050505050565b83815260606020820152600061302e6060830185612638565b82810360408401526130408185612638565b9695505050505050565b60006020828403121561305c57600080fd5b815161245781612901565b6001600160a01b038416815260606020820181905260009061302e90830185612638565b60005b838110156130a657818101518382015260200161308e565b83811115611f7f5750506000910152565b600081518084526130cf81602086016020860161308b565b601f01601f19169290920160200192915050565b60018060a01b038516815283602082015282604082015260806060820152600061304060808301846130b7565b60208082526026908201527f4f776e61626c653a206e6577206f776e657220697320746865207a65726f206160408201526564647265737360d01b606082015260800190565b6020808252602b908201527f496e697469616c697a61626c653a20636f6e7472616374206973206e6f74206960408201526a6e697469616c697a696e6760a81b606082015260800190565b600082516131b381846020870161308b565b9190910192915050565b60208152600061245760208301846130b756fe416464726573733a206c6f772d6c6576656c2064656c65676174652063616c6c206661696c6564a2646970667358221220df5f565d3000890ed171f3250f84fb3c42e1c888d74f77762e4a9af130cd487a64736f6c634300080d0033",
  "linkReferences": {},
  "deployedLinkReferences": {}
}