{
  "_format": "hh-sol-artifact-1",
  "contractName": "OneRareMarketplace",
  "sourceName": "contracts/oRareMarketplace/OneRareMarketplace.sol",
  "abi": [
    {
      "inputs": [],
      "stateMutability": "nonpayable",
      "type": "constructor"
    },
    {
      "anonymous": false,
      "inputs": [
        {
          "indexed": false,
          "internalType": "address[]",
          "name": "accounts",
          "type": "address[]"
        }
      ],
      "name": "AdminAdded",
      "type": "event"
    },
    {
      "anonymous": false,
      "inputs": [
        {
          "indexed": false,
          "internalType": "address",
          "name": "previousAdmin",
          "type": "address"
        },
        {
          "indexed": false,
          "internalType": "address",
          "name": "newAdmin",
          "type": "address"
        }
      ],
      "name": "AdminChanged",
      "type": "event"
    },
    {
      "anonymous": false,
      "inputs": [
        {
          "indexed": false,
          "internalType": "address[]",
          "name": "accounts",
          "type": "address[]"
        }
      ],
      "name": "AdminRemoved",
      "type": "event"
    },
    {
      "anonymous": false,
      "inputs": [
        {
          "indexed": true,
          "internalType": "address",
          "name": "seller",
          "type": "address"
        },
        {
          "indexed": false,
          "internalType": "uint256[]",
          "name": "tokenId",
          "type": "uint256[]"
        },
        {
          "indexed": false,
          "internalType": "uint256[]",
          "name": "orderId",
          "type": "uint256[]"
        }
      ],
      "name": "BatchOrderCancelled",
      "type": "event"
    },
    {
      "anonymous": false,
      "inputs": [
        {
          "indexed": true,
          "internalType": "address",
          "name": "seller",
          "type": "address"
        },
        {
          "indexed": false,
          "internalType": "uint256[]",
          "name": "tokenId",
          "type": "uint256[]"
        },
        {
          "indexed": false,
          "internalType": "uint256[]",
          "name": "orderId_",
          "type": "uint256[]"
        },
        {
          "indexed": false,
          "internalType": "uint256[]",
          "name": "pice",
          "type": "uint256[]"
        },
        {
          "indexed": false,
          "internalType": "uint256[]",
          "name": "quantity",
          "type": "uint256[]"
        }
      ],
      "name": "BatchOrderCreated",
      "type": "event"
    },
    {
      "anonymous": false,
      "inputs": [
        {
          "indexed": true,
          "internalType": "address",
          "name": "buyer",
          "type": "address"
        },
        {
          "indexed": false,
          "internalType": "uint256[]",
          "name": "tokenIds",
          "type": "uint256[]"
        },
        {
          "indexed": false,
          "internalType": "uint256[]",
          "name": "orderIds",
          "type": "uint256[]"
        },
        {
          "indexed": false,
          "internalType": "uint256[]",
          "name": "quantity",
          "type": "uint256[]"
        }
      ],
      "name": "BatchOrderExecuted",
      "type": "event"
    },
    {
      "anonymous": false,
      "inputs": [
        {
          "indexed": true,
          "internalType": "address",
          "name": "beacon",
          "type": "address"
        }
      ],
      "name": "BeaconUpgraded",
      "type": "event"
    },
    {
      "anonymous": false,
      "inputs": [
        {
          "indexed": true,
          "internalType": "address",
          "name": "to",
          "type": "address"
        },
        {
          "indexed": true,
          "internalType": "address",
          "name": "token",
          "type": "address"
        },
        {
          "indexed": true,
          "internalType": "uint256",
          "name": "tokenId",
          "type": "uint256"
        },
        {
          "indexed": false,
          "internalType": "uint256",
          "name": "amount",
          "type": "uint256"
        }
      ],
      "name": "ERC1155TokensRecovered",
      "type": "event"
    },
    {
      "anonymous": false,
      "inputs": [
        {
          "indexed": true,
          "internalType": "address",
          "name": "to",
          "type": "address"
        },
        {
          "indexed": true,
          "internalType": "address",
          "name": "token",
          "type": "address"
        },
        {
          "indexed": false,
          "internalType": "uint256",
          "name": "amount",
          "type": "uint256"
        }
      ],
      "name": "ERC20TokensRecovered",
      "type": "event"
    },
    {
      "anonymous": false,
      "inputs": [
        {
          "indexed": true,
          "internalType": "address",
          "name": "seller",
          "type": "address"
        },
        {
          "indexed": true,
          "internalType": "uint256",
          "name": "tokenId",
          "type": "uint256"
        },
        {
          "indexed": true,
          "internalType": "uint256",
          "name": "orderId",
          "type": "uint256"
        }
      ],
      "name": "OrderCancelled",
      "type": "event"
    },
    {
      "anonymous": false,
      "inputs": [
        {
          "indexed": true,
          "internalType": "address",
          "name": "seller",
          "type": "address"
        },
        {
          "indexed": true,
          "internalType": "uint256",
          "name": "tokenId",
          "type": "uint256"
        },
        {
          "indexed": true,
          "internalType": "uint256",
          "name": "orderId_",
          "type": "uint256"
        },
        {
          "indexed": false,
          "internalType": "uint256",
          "name": "pice",
          "type": "uint256"
        },
        {
          "indexed": false,
          "internalType": "uint256",
          "name": "quantity",
          "type": "uint256"
        }
      ],
      "name": "OrderCreated",
      "type": "event"
    },
    {
      "anonymous": false,
      "inputs": [
        {
          "indexed": true,
          "internalType": "address",
          "name": "buyer",
          "type": "address"
        },
        {
          "indexed": true,
          "internalType": "uint256",
          "name": "tokenId",
          "type": "uint256"
        },
        {
          "indexed": false,
          "internalType": "uint256[]",
          "name": "orderIds",
          "type": "uint256[]"
        },
        {
          "indexed": false,
          "internalType": "uint256[]",
          "name": "quantity",
          "type": "uint256[]"
        }
      ],
      "name": "OrderExecuted",
      "type": "event"
    },
    {
      "anonymous": false,
      "inputs": [
        {
          "indexed": true,
          "internalType": "address",
          "name": "previousOwner",
          "type": "address"
        },
        {
          "indexed": true,
          "internalType": "address",
          "name": "newOwner",
          "type": "address"
        }
      ],
      "name": "OwnershipTransferred",
      "type": "event"
    },
    {
      "anonymous": false,
      "inputs": [
        {
          "indexed": false,
          "internalType": "address",
          "name": "account",
          "type": "address"
        }
      ],
      "name": "Paused",
      "type": "event"
    },
    {
      "anonymous": false,
      "inputs": [
        {
          "indexed": false,
          "internalType": "address",
          "name": "account",
          "type": "address"
        }
      ],
      "name": "Unpaused",
      "type": "event"
    },
    {
      "anonymous": false,
      "inputs": [
        {
          "indexed": true,
          "internalType": "address",
          "name": "implementation",
          "type": "address"
        }
      ],
      "name": "Upgraded",
      "type": "event"
    },
    {
      "inputs": [
        {
          "internalType": "uint256",
          "name": "nftId_",
          "type": "uint256"
        },
        {
          "internalType": "uint256[]",
          "name": "orderIds_",
          "type": "uint256[]"
        },
        {
          "internalType": "uint256[]",
          "name": "quantities_",
          "type": "uint256[]"
        }
      ],
      "name": "batchBuyFromOrderId",
      "outputs": [],
      "stateMutability": "nonpayable",
      "type": "function"
    },
    {
      "inputs": [
        {
          "internalType": "uint256[]",
          "name": "tokenIds_",
          "type": "uint256[]"
        },
        {
          "internalType": "uint256[]",
          "name": "orderIds_",
          "type": "uint256[]"
        },
        {
          "internalType": "uint256[]",
          "name": "quantities_",
          "type": "uint256[]"
        }
      ],
      "name": "batchBuyFromOrderTokenIds",
      "outputs": [],
      "stateMutability": "nonpayable",
      "type": "function"
    },
    {
      "inputs": [
        {
          "internalType": "uint256[]",
          "name": "nftIds_",
          "type": "uint256[]"
        },
        {
          "internalType": "uint256[]",
          "name": "orderIds_",
          "type": "uint256[]"
        }
      ],
      "name": "batchCancelOrder",
      "outputs": [],
      "stateMutability": "nonpayable",
      "type": "function"
    },
    {
      "inputs": [
        {
          "internalType": "uint256[]",
          "name": "nftIds_",
          "type": "uint256[]"
        },
        {
          "internalType": "uint256[]",
          "name": "quantities_",
          "type": "uint256[]"
        },
        {
          "internalType": "uint256[]",
          "name": "prices_",
          "type": "uint256[]"
        }
      ],
      "name": "batchCreateOrder",
      "outputs": [],
      "stateMutability": "nonpayable",
      "type": "function"
    },
    {
      "inputs": [
        {
          "internalType": "uint256",
          "name": "nftId_",
          "type": "uint256"
        },
        {
          "internalType": "uint256",
          "name": "orderId_",
          "type": "uint256"
        }
      ],
      "name": "cancelOrder",
      "outputs": [],
      "stateMutability": "nonpayable",
      "type": "function"
    },
    {
      "inputs": [
        {
          "internalType": "uint256",
          "name": "nftId_",
          "type": "uint256"
        },
        {
          "internalType": "uint256",
          "name": "quantity_",
          "type": "uint256"
        },
        {
          "internalType": "uint256",
          "name": "price_",
          "type": "uint256"
        }
      ],
      "name": "createOrder",
      "outputs": [],
      "stateMutability": "nonpayable",
      "type": "function"
    },
    {
      "inputs": [],
      "name": "feeManager",
      "outputs": [
        {
          "internalType": "address",
          "name": "",
          "type": "address"
        }
      ],
      "stateMutability": "view",
      "type": "function"
    },
    {
      "inputs": [],
      "name": "feePercent",
      "outputs": [
        {
          "internalType": "uint256",
          "name": "",
          "type": "uint256"
        }
      ],
      "stateMutability": "view",
      "type": "function"
    },
    {
      "inputs": [
        {
          "internalType": "uint256",
          "name": "nftId_",
          "type": "uint256"
        }
      ],
      "name": "getAllOrder",
      "outputs": [
        {
          "components": [
            {
              "internalType": "address",
              "name": "seller",
              "type": "address"
            },
            {
              "internalType": "uint256",
              "name": "price",
              "type": "uint256"
            },
            {
              "internalType": "uint256",
              "name": "quantity",
              "type": "uint256"
            },
            {
              "internalType": "uint256",
              "name": "filled",
              "type": "uint256"
            },
            {
              "internalType": "enum OrderStatus",
              "name": "status",
              "type": "uint8"
            }
          ],
          "internalType": "struct Order[]",
          "name": "",
          "type": "tuple[]"
        }
      ],
      "stateMutability": "view",
      "type": "function"
    },
    {
      "inputs": [
        {
          "internalType": "uint256",
          "name": "nftId_",
          "type": "uint256"
        }
      ],
      "name": "getCompletedOrder",
      "outputs": [
        {
          "internalType": "uint256[]",
          "name": "",
          "type": "uint256[]"
        },
        {
          "components": [
            {
              "internalType": "address",
              "name": "seller",
              "type": "address"
            },
            {
              "internalType": "uint256",
              "name": "price",
              "type": "uint256"
            },
            {
              "internalType": "uint256",
              "name": "quantity",
              "type": "uint256"
            },
            {
              "internalType": "uint256",
              "name": "filled",
              "type": "uint256"
            },
            {
              "internalType": "enum OrderStatus",
              "name": "status",
              "type": "uint8"
            }
          ],
          "internalType": "struct Order[]",
          "name": "",
          "type": "tuple[]"
        }
      ],
      "stateMutability": "view",
      "type": "function"
    },
    {
      "inputs": [
        {
          "internalType": "uint256",
          "name": "nftId_",
          "type": "uint256"
        }
      ],
      "name": "getOrderBookSize",
      "outputs": [
        {
          "internalType": "uint256",
          "name": "",
          "type": "uint256"
        }
      ],
      "stateMutability": "view",
      "type": "function"
    },
    {
      "inputs": [
        {
          "internalType": "uint256",
          "name": "nftId_",
          "type": "uint256"
        },
        {
          "internalType": "uint256",
          "name": "orderId_",
          "type": "uint256"
        }
      ],
      "name": "getOrderById",
      "outputs": [
        {
          "components": [
            {
              "internalType": "address",
              "name": "seller",
              "type": "address"
            },
            {
              "internalType": "uint256",
              "name": "price",
              "type": "uint256"
            },
            {
              "internalType": "uint256",
              "name": "quantity",
              "type": "uint256"
            },
            {
              "internalType": "uint256",
              "name": "filled",
              "type": "uint256"
            },
            {
              "internalType": "enum OrderStatus",
              "name": "status",
              "type": "uint8"
            }
          ],
          "internalType": "struct Order",
          "name": "",
          "type": "tuple"
        }
      ],
      "stateMutability": "view",
      "type": "function"
    },
    {
      "inputs": [
        {
          "internalType": "uint256",
          "name": "nftId_",
          "type": "uint256"
        },
        {
          "internalType": "uint256",
          "name": "cursor_",
          "type": "uint256"
        },
        {
          "internalType": "uint256",
          "name": "limit_",
          "type": "uint256"
        }
      ],
      "name": "getOrderByRange",
      "outputs": [
        {
          "components": [
            {
              "internalType": "address",
              "name": "seller",
              "type": "address"
            },
            {
              "internalType": "uint256",
              "name": "price",
              "type": "uint256"
            },
            {
              "internalType": "uint256",
              "name": "quantity",
              "type": "uint256"
            },
            {
              "internalType": "uint256",
              "name": "filled",
              "type": "uint256"
            },
            {
              "internalType": "enum OrderStatus",
              "name": "status",
              "type": "uint8"
            }
          ],
          "internalType": "struct Order[]",
          "name": "",
          "type": "tuple[]"
        }
      ],
      "stateMutability": "view",
      "type": "function"
    },
    {
      "inputs": [
        {
          "internalType": "uint256[]",
          "name": "nftIds_",
          "type": "uint256[]"
        },
        {
          "internalType": "uint256[]",
          "name": "orderIds_",
          "type": "uint256[]"
        }
      ],
      "name": "getOrders",
      "outputs": [
        {
          "components": [
            {
              "internalType": "address",
              "name": "seller",
              "type": "address"
            },
            {
              "internalType": "uint256",
              "name": "price",
              "type": "uint256"
            },
            {
              "internalType": "uint256",
              "name": "quantity",
              "type": "uint256"
            },
            {
              "internalType": "uint256",
              "name": "filled",
              "type": "uint256"
            },
            {
              "internalType": "enum OrderStatus",
              "name": "status",
              "type": "uint8"
            }
          ],
          "internalType": "struct Order[]",
          "name": "",
          "type": "tuple[]"
        }
      ],
      "stateMutability": "view",
      "type": "function"
    },
    {
      "inputs": [
        {
          "internalType": "uint256",
          "name": "nftId_",
          "type": "uint256"
        }
      ],
      "name": "getPendingOrder",
      "outputs": [
        {
          "internalType": "uint256[]",
          "name": "",
          "type": "uint256[]"
        },
        {
          "components": [
            {
              "internalType": "address",
              "name": "seller",
              "type": "address"
            },
            {
              "internalType": "uint256",
              "name": "price",
              "type": "uint256"
            },
            {
              "internalType": "uint256",
              "name": "quantity",
              "type": "uint256"
            },
            {
              "internalType": "uint256",
              "name": "filled",
              "type": "uint256"
            },
            {
              "internalType": "enum OrderStatus",
              "name": "status",
              "type": "uint8"
            }
          ],
          "internalType": "struct Order[]",
          "name": "",
          "type": "tuple[]"
        }
      ],
      "stateMutability": "view",
      "type": "function"
    },
    {
      "inputs": [
        {
          "internalType": "address",
          "name": "owner_",
          "type": "address"
        },
        {
          "internalType": "address",
          "name": "oRareNft_",
          "type": "address"
        },
        {
          "internalType": "address",
          "name": "oRareToken_",
          "type": "address"
        },
        {
          "internalType": "address",
          "name": "feeManager_",
          "type": "address"
        },
        {
          "internalType": "uint256",
          "name": "feePercent_",
          "type": "uint256"
        }
      ],
      "name": "initialize",
      "outputs": [],
      "stateMutability": "nonpayable",
      "type": "function"
    },
    {
      "inputs": [],
      "name": "oRareNft",
      "outputs": [
        {
          "internalType": "contract IERC1155",
          "name": "",
          "type": "address"
        }
      ],
      "stateMutability": "view",
      "type": "function"
    },
    {
      "inputs": [],
      "name": "oRareToken",
      "outputs": [
        {
          "internalType": "contract IERC20",
          "name": "",
          "type": "address"
        }
      ],
      "stateMutability": "view",
      "type": "function"
    },
    {
      "inputs": [
        {
          "internalType": "address",
          "name": "",
          "type": "address"
        },
        {
          "internalType": "address",
          "name": "",
          "type": "address"
        },
        {
          "internalType": "uint256[]",
          "name": "",
          "type": "uint256[]"
        },
        {
          "internalType": "uint256[]",
          "name": "",
          "type": "uint256[]"
        },
        {
          "internalType": "bytes",
          "name": "",
          "type": "bytes"
        }
      ],
      "name": "onERC1155BatchReceived",
      "outputs": [
        {
          "internalType": "bytes4",
          "name": "",
          "type": "bytes4"
        }
      ],
      "stateMutability": "nonpayable",
      "type": "function"
    },
    {
      "inputs": [
        {
          "internalType": "address",
          "name": "",
          "type": "address"
        },
        {
          "internalType": "address",
          "name": "",
          "type": "address"
        },
        {
          "internalType": "uint256",
          "name": "",
          "type": "uint256"
        },
        {
          "internalType": "uint256",
          "name": "",
          "type": "uint256"
        },
        {
          "internalType": "bytes",
          "name": "",
          "type": "bytes"
        }
      ],
      "name": "onERC1155Received",
      "outputs": [
        {
          "internalType": "bytes4",
          "name": "",
          "type": "bytes4"
        }
      ],
      "stateMutability": "nonpayable",
      "type": "function"
    },
    {
      "inputs": [],
      "name": "owner",
      "outputs": [
        {
          "internalType": "address",
          "name": "",
          "type": "address"
        }
      ],
      "stateMutability": "view",
      "type": "function"
    },
    {
      "inputs": [],
      "name": "pauseContract",
      "outputs": [],
      "stateMutability": "nonpayable",
      "type": "function"
    },
    {
      "inputs": [],
      "name": "paused",
      "outputs": [
        {
          "internalType": "bool",
          "name": "",
          "type": "bool"
        }
      ],
      "stateMutability": "view",
      "type": "function"
    },
    {
      "inputs": [
        {
          "internalType": "address",
          "name": "to_",
          "type": "address"
        },
        {
          "internalType": "address",
          "name": "token_",
          "type": "address"
        },
        {
          "internalType": "uint256",
          "name": "tokenId_",
          "type": "uint256"
        },
        {
          "internalType": "uint256",
          "name": "amount_",
          "type": "uint256"
        }
      ],
      "name": "recoverERC1155",
      "outputs": [],
      "stateMutability": "nonpayable",
      "type": "function"
    },
    {
      "inputs": [
        {
          "internalType": "address",
          "name": "to_",
          "type": "address"
        },
        {
          "internalType": "address",
          "name": "token_",
          "type": "address"
        },
        {
          "internalType": "uint256",
          "name": "amount_",
          "type": "uint256"
        }
      ],
      "name": "recoverERC20",
      "outputs": [],
      "stateMutability": "nonpayable",
      "type": "function"
    },
    {
      "inputs": [
        {
          "internalType": "bytes4",
          "name": "interfaceId",
          "type": "bytes4"
        }
      ],
      "name": "supportsInterface",
      "outputs": [
        {
          "internalType": "bool",
          "name": "",
          "type": "bool"
        }
      ],
      "stateMutability": "view",
      "type": "function"
    },
    {
      "inputs": [
        {
          "internalType": "address",
          "name": "newOwner_",
          "type": "address"
        }
      ],
      "name": "transferOwnership",
      "outputs": [],
      "stateMutability": "nonpayable",
      "type": "function"
    },
    {
      "inputs": [],
      "name": "unpauseContract",
      "outputs": [],
      "stateMutability": "nonpayable",
      "type": "function"
    },
    {
      "inputs": [
        {
          "internalType": "address",
          "name": "feeManager_",
          "type": "address"
        }
      ],
      "name": "updateFeeManager",
      "outputs": [],
      "stateMutability": "nonpayable",
      "type": "function"
    },
    {
      "inputs": [
        {
          "internalType": "uint256",
          "name": "feePercent_",
          "type": "uint256"
        }
      ],
      "name": "updateFeePercent",
      "outputs": [],
      "stateMutability": "nonpayable",
      "type": "function"
    },
    {
      "inputs": [
        {
          "internalType": "address",
          "name": "newImplementation",
          "type": "address"
        }
      ],
      "name": "upgradeTo",
      "outputs": [],
      "stateMutability": "nonpayable",
      "type": "function"
    },
    {
      "inputs": [
        {
          "internalType": "address",
          "name": "newImplementation",
          "type": "address"
        },
        {
          "internalType": "bytes",
          "name": "data",
          "type": "bytes"
        }
      ],
      "name": "upgradeToAndCall",
      "outputs": [],
      "stateMutability": "payable",
      "type": "function"
    }
  ],
  "bytecode": "0x60a0604052306080523480156200001557600080fd5b50603754610100900460ff16620000335760375460ff16156200003d565b6200003d620000e2565b620000a55760405162461bcd60e51b815260206004820152602e60248201527f496e697469616c697a61626c653a20636f6e747261637420697320616c72656160448201526d191e481a5b9a5d1a585b1a5e995960921b606482015260840160405180910390fd5b603754610100900460ff16158015620000c8576037805461ffff19166101011790555b8015620000db576037805461ff00191690555b5062000106565b6000620000fa306200010060201b62002a731760201c565b15905090565b3b151590565b608051613f1062000137600039600081816109d301528181610a1301528181610d480152610d880152613f106000f3fe6080604052600436106101e35760003560e01c8063a1ba444d11610102578063d0fb020311610095578063f05c5fed11610064578063f05c5fed146105ca578063f23a6e61146105ea578063f2fde38b14610616578063f7013ef61461063657600080fd5b8063d0fb02031461054a578063dda979001461056a578063e0b9f3e21461058a578063e43d41bf146105aa57600080fd5b8063b6ed0632116100d1578063b6ed063214610498578063bc197c81146104b8578063c46ab960146104fd578063c6acd2741461052a57600080fd5b8063a1ba444d14610423578063b183e72f14610443578063b29cc75c14610463578063b33712c51461048357600080fd5b80634f1ef2861161017a5780636de7cb22116101495780636de7cb22146103ae5780637e44b49a146103ce5780637fd6f15c146103ee5780638da5cb5b1461040457600080fd5b80634f1ef2861461032a5780635264f49e1461033d57806354fd8fea146103755780635c975abb1461039557600080fd5b806342f0943c116101b657806342f0943c1461028d578063439766ce146102ba57806346a7d7d9146102cf578063486a44e91461030a57600080fd5b806301ffc9a7146101e85780631171bda91461021d5780631e186afb1461023f5780633659cfe61461026d575b600080fd5b3480156101f457600080fd5b5061020861020336600461335e565b610656565b60405190151581526020015b60405180910390f35b34801561022957600080fd5b5061023d6102383660046133a4565b61068d565b005b34801561024b57600080fd5b5061025f61025a3660046133e0565b610727565b6040516102149291906134dd565b34801561027957600080fd5b5061023d610288366004613502565b6109c9565b34801561029957600080fd5b506102ad6102a836600461351d565b610a91565b6040516102149190613549565b3480156102c657600080fd5b5061023d610c0f565b3480156102db57600080fd5b506102fc6102ea3660046133e0565b60009081526020819052604090205490565b604051908152602001610214565b34801561031657600080fd5b506102ad610325366004613616565b610c44565b61023d6103383660046136e8565b610d3e565b34801561034957600080fd5b5060025461035d906001600160a01b031681565b6040516001600160a01b039091168152602001610214565b34801561038157600080fd5b5061023d61039036600461372b565b610df7565b3480156103a157600080fd5b506101335460ff16610208565b3480156103ba57600080fd5b5060015461035d906001600160a01b031681565b3480156103da57600080fd5b5061023d6103e936600461372b565b61123e565b3480156103fa57600080fd5b506102fc60045481565b34801561041057600080fd5b50610100546001600160a01b031661035d565b34801561042f57600080fd5b5061023d61043e36600461351d565b611581565b34801561044f57600080fd5b506102ad61045e3660046133e0565b61186b565b34801561046f57600080fd5b5061023d61047e3660046137b2565b61193c565b34801561048f57600080fd5b5061023d611a36565b3480156104a457600080fd5b5061023d6104b33660046137f4565b611a69565b3480156104c457600080fd5b506104e46104d3366004613816565b63bc197c8160e01b95945050505050565b6040516001600160e01b03199091168152602001610214565b34801561050957600080fd5b5061051d6105183660046137f4565b611ca7565b60405161021491906138bf565b34801561053657600080fd5b5061023d610545366004613502565b611da7565b34801561055657600080fd5b5060035461035d906001600160a01b031681565b34801561057657600080fd5b5061023d6105853660046138cd565b611e4a565b34801561059657600080fd5b5061025f6105a53660046133e0565b6121c4565b3480156105b657600080fd5b5061023d6105c5366004613616565b61245e565b3480156105d657600080fd5b5061023d6105e53660046133e0565b6127c1565b3480156105f657600080fd5b506104e4610605366004613900565b63f23a6e6160e01b95945050505050565b34801561062257600080fd5b5061023d610631366004613502565b6127f1565b34801561064257600080fd5b5061023d610651366004613964565b6128a0565b60006001600160e01b03198216630271189760e51b148061068757506301ffc9a760e01b6001600160e01b03198316145b92915050565b610100546001600160a01b031633146106c15760405162461bcd60e51b81526004016106b8906139c0565b60405180910390fd5b6106d56001600160a01b0383168483612a79565b816001600160a01b0316836001600160a01b03167f4050c48d70b976fd498520efd416e07e40ac8348f52015e03796efb47b5981998360405161071a91815260200190565b60405180910390a3505050565b6060806000805b6000858152602081905260409020548110156107b1576000858152602081905260408120805483908110610764576107646139f5565b600091825260209091206004600590920201015460ff16600281111561078c5761078c613434565b0361079f578161079b81613a21565b9250505b806107a981613a21565b91505061072e565b6000826001600160401b038111156107cb576107cb61355c565b6040519080825280602002602001820160405280156107f4578160200160208202803683370190505b5090506000836001600160401b038111156108115761081161355c565b60405190808252806020026020018201604052801561084a57816020015b610837613316565b81526020019060019003908161082f5790505b50905060009350600092505b6000878152602081905260409020548310156109bd57600087815260208190526040812080548590811061088c5761088c6139f5565b600091825260209091206004600590920201015460ff1660028111156108b4576108b4613434565b036109ab57828285815181106108cc576108cc6139f5565b60200260200101818152505060008088815260200190815260200160002083815481106108fb576108fb6139f5565b60009182526020918290206040805160a081018252600590930290910180546001600160a01b0316835260018101549383019390935260028084015491830191909152600383015460608301526004830154919291608084019160ff9091169081111561096a5761096a613434565b600281111561097b5761097b613434565b81525050818581518110610991576109916139f5565b602002602001018190525083806109a790613a21565b9450505b826109b581613a21565b935050610856565b90969095509350505050565b6001600160a01b037f0000000000000000000000000000000000000000000000000000000000000000163003610a115760405162461bcd60e51b81526004016106b890613a3a565b7f00000000000000000000000000000000000000000000000000000000000000006001600160a01b0316610a43612ae1565b6001600160a01b031614610a695760405162461bcd60e51b81526004016106b890613a86565b610a7281612b0f565b60408051600080825260208201909252610a8e91839190612b3a565b50565b60606000610ab6610aa28486613ad2565b600087815260208190526040902054612c85565b90506000610ac48583613aea565b6001600160401b03811115610adb57610adb61355c565b604051908082528060200260200182016040528015610b1457816020015b610b01613316565b815260200190600190039081610af95790505b5090506000855b83811015610c01576000888152602081905260409020805482908110610b4357610b436139f5565b60009182526020918290206040805160a081018252600590930290910180546001600160a01b0316835260018101549383019390935260028084015491830191909152600383015460608301526004830154919291608084019160ff90911690811115610bb257610bb2613434565b6002811115610bc357610bc3613434565b9052508383610bd181613a21565b945081518110610be357610be36139f5565b60200260200101819052508080610bf990613a21565b915050610b1b565b5090925050505b9392505050565b610100546001600160a01b03163314610c3a5760405162461bcd60e51b81526004016106b8906139c0565b610c42612c9b565b565b60608151835114610c675760405162461bcd60e51b81526004016106b890613b01565b600083516001600160401b03811115610c8257610c8261355c565b604051908082528060200260200182016040528015610cbb57816020015b610ca8613316565b815260200190600190039081610ca05790505b50905060005b8451811015610d3657610d06858281518110610cdf57610cdf6139f5565b6020026020010151858381518110610cf957610cf96139f5565b6020026020010151611ca7565b828281518110610d1857610d186139f5565b60200260200101819052508080610d2e90613a21565b915050610cc1565b509392505050565b6001600160a01b037f0000000000000000000000000000000000000000000000000000000000000000163003610d865760405162461bcd60e51b81526004016106b890613a3a565b7f00000000000000000000000000000000000000000000000000000000000000006001600160a01b0316610db8612ae1565b6001600160a01b031614610dde5760405162461bcd60e51b81526004016106b890613a86565b610de782612b0f565b610df382826001612b3a565b5050565b6101335460ff1615610e1b5760405162461bcd60e51b81526004016106b890613b38565b81518351148015610e2d575080518251145b610e495760405162461bcd60e51b81526004016106b890613b01565b60008060008060008060005b88518110156111635760016000808c8481518110610e7557610e756139f5565b602002602001015181526020019081526020016000208054905010158015610ee357506000808b8381518110610ead57610ead6139f5565b6020026020010151815260200190815260200160002080549050898281518110610ed957610ed96139f5565b6020026020010151105b610eff5760405162461bcd60e51b81526004016106b890613b62565b878181518110610f1157610f116139f5565b602002602001015192506000808b8381518110610f3057610f306139f5565b60200260200101518152602001908152602001600020898281518110610f5857610f586139f5565b602002602001015181548110610f7057610f706139f5565b6000918252602082206005909102019750600488015460ff166002811115610f9a57610f9a613434565b14610fb75760405162461bcd60e51b81526004016106b890613b8c565b600083116110075760405162461bcd60e51b815260206004820152601f60248201527f427579696e67207175616e746974792073686f756c64206e6f7420626520300060448201526064016106b8565b8660030154876002015461101b9190613aea565b95506110278684612c85565b92508288828151811061103c5761103c6139f5565b602090810291909101015260018701546110569084613bcf565b9450612710600454866110699190613bcf565b6110739190613bee565b935061107f8483613ad2565b9150828760030160008282546110959190613ad2565b90915550508286036110b15760048701805460ff191660011790555b6001546001600160a01b03166323b872dd3389546001600160a01b03166110d8888a613aea565b6040516001600160e01b031960e086901b1681526001600160a01b03938416600482015292909116602483015260448201526064016020604051808303816000875af115801561112c573d6000803e3d6000fd5b505050506040513d601f19601f820116820180604052508101906111509190613c10565b508061115b81613a21565b915050610e55565b50611182336003546001546001600160a01b0390811692911684612d12565b6002546001600160a01b0316632eb2c2d630338c8b6040518563ffffffff1660e01b81526004016111b69493929190613c32565b600060405180830381600087803b1580156111d057600080fd5b505af11580156111e4573d6000803e3d6000fd5b505050506111ef3390565b6001600160a01b03167fb42de7d8a3485c61c175c6a193127eacc54fefcb677985f46110109240fa59698a8a8a60405161122b93929190613c92565b60405180910390a2505050505050505050565b6101335460ff16156112625760405162461bcd60e51b81526004016106b890613b38565b81518351148015611274575080518251145b6112905760405162461bcd60e51b81526004016106b890613b01565b600083516001600160401b038111156112ab576112ab61355c565b6040519080825280602002602001820160405280156112d4578160200160208202803683370190505b50600254604051631759616b60e11b81529192506001600160a01b031690632eb2c2d69061130c903390309089908990600401613c32565b600060405180830381600087803b15801561132657600080fd5b505af115801561133a573d6000803e3d6000fd5b5050505060005b845181101561153357600083828151811061135e5761135e6139f5565b6020026020010151116113a35760405162461bcd60e51b815260206004820152600d60248201526c496e76616c696420707269636560981b60448201526064016106b8565b6000808683815181106113b8576113b86139f5565b60200260200101518152602001908152602001600020805490508282815181106113e4576113e46139f5565b602002602001018181525050600080868381518110611405576114056139f5565b602002602001015181526020019081526020016000206040518060a0016040528061142d3390565b6001600160a01b0316815260200185848151811061144d5761144d6139f5565b6020026020010151815260200186848151811061146c5761146c6139f5565b60200260200101518152602001600081526020016000600281111561149357611493613434565b90528154600180820184556000938452602093849020835160059093020180546001600160a01b0319166001600160a01b0390931692909217825592820151818401556040820151600280830191909155606083015160038301556080830151600483018054949593949193909260ff1990921691849081111561151957611519613434565b02179055505050808061152b90613a21565b915050611341565b50336001600160a01b03167fffed4c9d3a73e5e6cba92573ca330d896e543e171f63270ba46c3326efe7575c858385876040516115739493929190613cd5565b60405180910390a250505050565b6101335460ff16156115a55760405162461bcd60e51b81526004016106b890613b38565b60008211801561163457506002546001600160a01b031662fdd58e336040516001600160e01b031960e084901b1681526001600160a01b03909116600482015260248101869052604401602060405180830381865afa15801561160c573d6000803e3d6000fd5b505050506040513d601f19601f820116820180604052508101906116309190613d22565b8211155b6116775760405162461bcd60e51b8152602060048201526014602482015273496e73756666696369656e742062616c616e636560601b60448201526064016106b8565b600081116116b75760405162461bcd60e51b815260206004820152600d60248201526c496e76616c696420707269636560981b60448201526064016106b8565b6000838152602081905260409020546002546001600160a01b031663f242432a333087876040518563ffffffff1660e01b81526004016116fa9493929190613d3b565b600060405180830381600087803b15801561171457600080fd5b505af1158015611728573d6000803e3d6000fd5b505050506000808581526020019081526020016000206040518060a001604052806117503390565b6001600160a01b03168152602001848152602001858152602001600081526020016000600281111561178457611784613434565b90528154600180820184556000938452602093849020835160059093020180546001600160a01b0319166001600160a01b0390931692909217825592820151818401556040820151600280830191909155606083015160038301556080830151600483018054949593949193909260ff1990921691849081111561180a5761180a613434565b02179055505050808461181a3390565b6001600160a01b03167fc3eadec930ae8cd63ef78d03de3261c07db5a1a35324a34357e2db3c3991e945858760405161185d929190918252602082015260400190565b60405180910390a450505050565b600081815260208181526040808320805482518185028101850190935280835260609492939192909184015b828210156119315760008481526020908190206040805160a0810182526005860290920180546001600160a01b0316835260018101549383019390935260028084015491830191909152600383015460608301526004830154919291608084019160ff9091169081111561190d5761190d613434565b600281111561191e5761191e613434565b8152505081526020019060010190611897565b505050509050919050565b610100546001600160a01b031633146119675760405162461bcd60e51b81526004016106b8906139c0565b604051637921219560e11b81523060048201526001600160a01b038581166024830152604482018490526064820183905260a06084830152600360a48301526203078360ec1b60c483015284169063f242432a9060e401600060405180830381600087803b1580156119d857600080fd5b505af11580156119ec573d6000803e3d6000fd5b5050505081836001600160a01b0316856001600160a01b03167fcde96a2035feea633e2659b8b80b9bde99e1d7eeff6c59cda0bf5eb0a8e920238460405161185d91815260200190565b610100546001600160a01b03163314611a615760405162461bcd60e51b81526004016106b8906139c0565b610c42612d50565b6101335460ff1615611a8d5760405162461bcd60e51b81526004016106b890613b38565b60008281526020819052604090205482908290600111801590611abd575060008281526020819052604090205481105b611ad95760405162461bcd60e51b81526004016106b890613b62565b6000848152602081905260408120805485908110611af957611af96139f5565b6000918252602090912060059091020180549091506001600160a01b0316336001600160a01b031614611b6e5760405162461bcd60e51b815260206004820152601a60248201527f43616c6c6572206973206e6f74206f726465722073656c6c657200000000000060448201526064016106b8565b6000600482015460ff166002811115611b8957611b89613434565b14611bd15760405162461bcd60e51b815260206004820152601860248201527713dc99195c8818d85b89dd0818994818d85b98d95b1b195960421b60448201526064016106b8565b60048101805460ff19166002908117909155805482546003840154928401546001600160a01b039283169363f242432a93309316918a91611c1191613aea565b6040518563ffffffff1660e01b8152600401611c309493929190613d3b565b600060405180830381600087803b158015611c4a57600080fd5b505af1158015611c5e573d6000803e3d6000fd5b505050508385611c6b3390565b6001600160a01b03167f1cc4ef7364d50e00d7c0d373c9821ae6a7a3f03694e5931c5cddc075070ecb7c60405160405180910390a45050505050565b611caf613316565b60008381526020819052604090205483908390600111801590611cdf575060008281526020819052604090205481105b611cfb5760405162461bcd60e51b81526004016106b890613b62565b6000858152602081905260409020805485908110611d1b57611d1b6139f5565b60009182526020918290206040805160a081018252600590930290910180546001600160a01b0316835260018101549383019390935260028084015491830191909152600383015460608301526004830154919291608084019160ff90911690811115611d8a57611d8a613434565b6002811115611d9b57611d9b613434565b90525095945050505050565b610100546001600160a01b03163314611dd25760405162461bcd60e51b81526004016106b8906139c0565b6001600160a01b038116611e285760405162461bcd60e51b815260206004820181905260248201527f4665654d616e616765722063616e2774206265207a65726f206164647265737360448201526064016106b8565b600380546001600160a01b0319166001600160a01b0392909216919091179055565b6101335460ff1615611e6e5760405162461bcd60e51b81526004016106b890613b38565b8051825114611e8f5760405162461bcd60e51b81526004016106b890613b01565b6000808080808080805b89518110156120e95760008b815260208190526040902054600111801590611ee9575060008b8152602081905260409020548a518b9083908110611edf57611edf6139f5565b6020026020010151105b611f055760405162461bcd60e51b81526004016106b890613b62565b888181518110611f1757611f176139f5565b602002602001015193506000808c81526020019081526020016000208a8281518110611f4557611f456139f5565b602002602001015181548110611f5d57611f5d6139f5565b6000918252602082206005909102019850600489015460ff166002811115611f8757611f87613434565b14611fa45760405162461bcd60e51b81526004016106b890613b8c565b60008411611ff45760405162461bcd60e51b815260206004820152601f60248201527f427579696e67207175616e746974792073686f756c64206e6f7420626520300060448201526064016106b8565b876003015488600201546120089190613aea565b96506120148785612c85565b935083898281518110612029576120296139f5565b602090810291909101015260018801546120439085613bcf565b9550612710600454876120569190613bcf565b6120609190613bee565b945061206c8584613ad2565b92506120788483613ad2565b91508388600301600082825461208e9190613ad2565b90915550508387036120aa5760048801805460ff191660011790555b6120d73389546001600160a01b03166120c3888a613aea565b6001546001600160a01b0316929190612d12565b806120e181613a21565b915050611e99565b50612108336003546001546001600160a01b0390811692911685612d12565b6002546001600160a01b031663f242432a30338d856040518563ffffffff1660e01b815260040161213c9493929190613d3b565b600060405180830381600087803b15801561215657600080fd5b505af115801561216a573d6000803e3d6000fd5b50505050896121763390565b6001600160a01b03167f36a87bf2ef6c11fe3c5c8f6d7322c623c7cfee0a65a0fe825c3e2c6d30cfe5dd8b8b6040516121b0929190613d82565b60405180910390a350505050505050505050565b6060806000805b6000858152602081905260409020548110156122505760016000868152602081905260409020805483908110612203576122036139f5565b600091825260209091206004600590920201015460ff16600281111561222b5761222b613434565b0361223e578161223a81613a21565b9250505b8061224881613a21565b9150506121cb565b6000826001600160401b0381111561226a5761226a61355c565b604051908082528060200260200182016040528015612293578160200160208202803683370190505b5090506000836001600160401b038111156122b0576122b061355c565b6040519080825280602002602001820160405280156122e957816020015b6122d6613316565b8152602001906001900390816122ce5790505b50905060009350600092505b6000878152602081905260409020548310156109bd576001600088815260208190526040902080548590811061232d5761232d6139f5565b600091825260209091206004600590920201015460ff16600281111561235557612355613434565b0361244c578282858151811061236d5761236d6139f5565b602002602001018181525050600080888152602001908152602001600020838154811061239c5761239c6139f5565b60009182526020918290206040805160a081018252600590930290910180546001600160a01b0316835260018101549383019390935260028084015491830191909152600383015460608301526004830154919291608084019160ff9091169081111561240b5761240b613434565b600281111561241c5761241c613434565b81525050818581518110612432576124326139f5565b6020026020010181905250838061244890613a21565b9450505b8261245681613a21565b9350506122f5565b6101335460ff16156124825760405162461bcd60e51b81526004016106b890613b38565b80518251146124a35760405162461bcd60e51b81526004016106b890613b01565b60008083516001600160401b038111156124bf576124bf61355c565b6040519080825280602002602001820160405280156124e8578160200160208202803683370190505b50905060005b845181101561271957600160008087848151811061250e5761250e6139f5565b60200260200101518152602001908152602001600020805490501015801561257c5750600080868381518110612546576125466139f5565b6020026020010151815260200190815260200160002080549050848281518110612572576125726139f5565b6020026020010151105b6125985760405162461bcd60e51b81526004016106b890613b62565b6000808683815181106125ad576125ad6139f5565b602002602001015181526020019081526020016000208482815181106125d5576125d56139f5565b6020026020010151815481106125ed576125ed6139f5565b6000918252602090912060059091020180549093506001600160a01b0316336001600160a01b0316146126625760405162461bcd60e51b815260206004820152601a60248201527f43616c6c6572206973206e6f74206f726465722073656c6c657200000000000060448201526064016106b8565b6000600484015460ff16600281111561267d5761267d613434565b146126c55760405162461bcd60e51b815260206004820152601860248201527713dc99195c8818d85b89dd0818994818d85b98d95b1b195960421b60448201526064016106b8565b60048301805460ff191660029081179091556003840154908401546126ea9190613aea565b8282815181106126fc576126fc6139f5565b60209081029190910101528061271181613a21565b9150506124ee565b506002546001600160a01b0316632eb2c2d6303387856040518563ffffffff1660e01b815260040161274e9493929190613c32565b600060405180830381600087803b15801561276857600080fd5b505af115801561277c573d6000803e3d6000fd5b505050506127873390565b6001600160a01b03167f1efc6632ab20bc3062a2e34703ab6a057dec0dadd494de5768cee01e42bdd20c8585604051611573929190613d82565b610100546001600160a01b031633146127ec5760405162461bcd60e51b81526004016106b8906139c0565b600455565b610100546001600160a01b0316331461281c5760405162461bcd60e51b81526004016106b8906139c0565b6001600160a01b0381166128425760405162461bcd60e51b81526004016106b890613da7565b610100546040516001600160a01b038084169216907f8be0079c531659141344cd1fd0a4f28419497f9722a3daafe3b4186f6b6457e090600090a361010080546001600160a01b0319166001600160a01b0392909216919091179055565b603754610100900460ff166128bb5760375460ff16156128bf565b303b155b6129225760405162461bcd60e51b815260206004820152602e60248201527f496e697469616c697a61626c653a20636f6e747261637420697320616c72656160448201526d191e481a5b9a5d1a585b1a5e995960921b60648201526084016106b8565b603754610100900460ff16158015612944576037805461ffff19166101011790555b6001600160a01b0384161580159061296457506001600160a01b03851615155b6129b05760405162461bcd60e51b815260206004820152601b60248201527f546f6b656e2063616e2774206265207a65726f2061646472657373000000000060448201526064016106b8565b6001600160a01b038316612a065760405162461bcd60e51b815260206004820181905260248201527f4665654d616e616765722063616e2774206265207a65726f206164647265737360448201526064016106b8565b612a0e612dcc565b612a1786612e03565b600180546001600160a01b038087166001600160a01b03199283161790925560028054888416908316179055600380549286169290911691909117905560048290558015612a6b576037805461ff00191690555b505050505050565b3b151590565b6040516001600160a01b038316602482015260448101829052612adc90849063a9059cbb60e01b906064015b60408051601f198184030181529190526020810180516001600160e01b03166001600160e01b031990931692909217909152612e3b565b505050565b7f360894a13ba1a3210667c828492db98dca3e2076cc3735a920a3ca505d382bbc546001600160a01b031690565b610100546001600160a01b03163314610a8e5760405162461bcd60e51b81526004016106b8906139c0565b6000612b44612ae1565b9050612b4f84612f0d565b600083511180612b5c5750815b15612b6d57612b6b8484612fb2565b505b7f4910fdfa16fed3260ed0e7147f7cc6da11a60208b5b9406d12a635614ffd9143805460ff16612c7e57805460ff191660011781556040516001600160a01b0383166024820152612bec90869060440160408051601f198184030181529190526020810180516001600160e01b0316631b2ce7f360e11b179052612fb2565b50805460ff19168155612bfd612ae1565b6001600160a01b0316826001600160a01b031614612c755760405162461bcd60e51b815260206004820152602f60248201527f45524331393637557067726164653a207570677261646520627265616b73206660448201526e75727468657220757067726164657360881b60648201526084016106b8565b612c7e8561309d565b5050505050565b6000818310612c945781610c08565b5090919050565b6101335460ff1615612cbf5760405162461bcd60e51b81526004016106b890613b38565b610133805460ff191660011790557f62e78cea01bee320cd4e420270b5ea74000d11b0c9f74754ebdbfc544b05a258612cf53390565b6040516001600160a01b03909116815260200160405180910390a1565b6040516001600160a01b0380851660248301528316604482015260648101829052612d4a9085906323b872dd60e01b90608401612aa5565b50505050565b6101335460ff16612d9a5760405162461bcd60e51b815260206004820152601460248201527314185d5cd8589b194e881b9bdd081c185d5cd95960621b60448201526064016106b8565b610133805460ff191690557f5db9ee0a495bf2e6ff9c91a7834c1ba4fdd244a5e8aa4e537bd38aeae4b073aa33612cf5565b603754610100900460ff16612df35760405162461bcd60e51b81526004016106b890613ded565b612dfb6130dd565b610c426130dd565b603754610100900460ff16612e2a5760405162461bcd60e51b81526004016106b890613ded565b612e326130dd565b610a8e81613104565b6000612e90826040518060400160405280602081526020017f5361666545524332303a206c6f772d6c6576656c2063616c6c206661696c6564815250856001600160a01b031661319e9092919063ffffffff16565b805190915015612adc5780806020019051810190612eae9190613c10565b612adc5760405162461bcd60e51b815260206004820152602a60248201527f5361666545524332303a204552433230206f7065726174696f6e20646964206e6044820152691bdd081cdd58d8d9595960b21b60648201526084016106b8565b803b612f715760405162461bcd60e51b815260206004820152602d60248201527f455243313936373a206e657720696d706c656d656e746174696f6e206973206e60448201526c1bdd08184818dbdb9d1c9858dd609a1b60648201526084016106b8565b7f360894a13ba1a3210667c828492db98dca3e2076cc3735a920a3ca505d382bbc80546001600160a01b0319166001600160a01b0392909216919091179055565b6060823b6130115760405162461bcd60e51b815260206004820152602660248201527f416464726573733a2064656c65676174652063616c6c20746f206e6f6e2d636f6044820152651b9d1c9858dd60d21b60648201526084016106b8565b600080846001600160a01b03168460405161302c9190613e64565b600060405180830381855af49150503d8060008114613067576040519150601f19603f3d011682016040523d82523d6000602084013e61306c565b606091505b50915091506130948282604051806060016040528060278152602001613eb4602791396131b5565b95945050505050565b6130a681612f0d565b6040516001600160a01b038216907fbc7cd75a20ee27fd9adebab32041f755214dbc6bffa90cc0225b39da2e5c2d3b90600090a250565b603754610100900460ff16610c425760405162461bcd60e51b81526004016106b890613ded565b603754610100900460ff1661312b5760405162461bcd60e51b81526004016106b890613ded565b6001600160a01b0381166131515760405162461bcd60e51b81526004016106b890613da7565b61010080546001600160a01b0319166001600160a01b0383169081179091556040516000907f8be0079c531659141344cd1fd0a4f28419497f9722a3daafe3b4186f6b6457e0908290a350565b60606131ad84846000856131ee565b949350505050565b606083156131c4575081610c08565b8251156131d45782518084602001fd5b8160405162461bcd60e51b81526004016106b89190613e80565b60608247101561324f5760405162461bcd60e51b815260206004820152602660248201527f416464726573733a20696e73756666696369656e742062616c616e636520666f6044820152651c8818d85b1b60d21b60648201526084016106b8565b843b61329d5760405162461bcd60e51b815260206004820152601d60248201527f416464726573733a2063616c6c20746f206e6f6e2d636f6e747261637400000060448201526064016106b8565b600080866001600160a01b031685876040516132b99190613e64565b60006040518083038185875af1925050503d80600081146132f6576040519150601f19603f3d011682016040523d82523d6000602084013e6132fb565b606091505b509150915061330b8282866131b5565b979650505050505050565b6040518060a0016040528060006001600160a01b031681526020016000815260200160008152602001600081526020016000600281111561335957613359613434565b905290565b60006020828403121561337057600080fd5b81356001600160e01b031981168114610c0857600080fd5b80356001600160a01b038116811461339f57600080fd5b919050565b6000806000606084860312156133b957600080fd5b6133c284613388565b92506133d060208501613388565b9150604084013590509250925092565b6000602082840312156133f257600080fd5b5035919050565b600081518084526020808501945080840160005b838110156134295781518752958201959082019060010161340d565b509495945050505050565b634e487b7160e01b600052602160045260246000fd5b80516001600160a01b0316825260208082015190830152604080820151908301526060808201519083015260808101516003811061349857634e487b7160e01b600052602160045260246000fd5b806080840152505050565b600081518084526020808501945080840160005b83811015613429576134ca87835161344a565b60a09690960195908201906001016134b7565b6040815260006134f060408301856133f9565b828103602084015261309481856134a3565b60006020828403121561351457600080fd5b610c0882613388565b60008060006060848603121561353257600080fd5b505081359360208301359350604090920135919050565b602081526000610c0860208301846134a3565b634e487b7160e01b600052604160045260246000fd5b604051601f8201601f191681016001600160401b038111828210171561359a5761359a61355c565b604052919050565b600082601f8301126135b357600080fd5b813560206001600160401b038211156135ce576135ce61355c565b8160051b6135dd828201613572565b92835284810182019282810190878511156135f757600080fd5b83870192505b8483101561330b578235825291830191908301906135fd565b6000806040838503121561362957600080fd5b82356001600160401b038082111561364057600080fd5b61364c868387016135a2565b9350602085013591508082111561366257600080fd5b5061366f858286016135a2565b9150509250929050565b600082601f83011261368a57600080fd5b81356001600160401b038111156136a3576136a361355c565b6136b6601f8201601f1916602001613572565b8181528460208386010111156136cb57600080fd5b816020850160208301376000918101602001919091529392505050565b600080604083850312156136fb57600080fd5b61370483613388565b915060208301356001600160401b0381111561371f57600080fd5b61366f85828601613679565b60008060006060848603121561374057600080fd5b83356001600160401b038082111561375757600080fd5b613763878388016135a2565b9450602086013591508082111561377957600080fd5b613785878388016135a2565b9350604086013591508082111561379b57600080fd5b506137a8868287016135a2565b9150509250925092565b600080600080608085870312156137c857600080fd5b6137d185613388565b93506137df60208601613388565b93969395505050506040820135916060013590565b6000806040838503121561380757600080fd5b50508035926020909101359150565b600080600080600060a0868803121561382e57600080fd5b61383786613388565b945061384560208701613388565b935060408601356001600160401b038082111561386157600080fd5b61386d89838a016135a2565b9450606088013591508082111561388357600080fd5b61388f89838a016135a2565b935060808801359150808211156138a557600080fd5b506138b288828901613679565b9150509295509295909350565b60a08101610687828461344a565b6000806000606084860312156138e257600080fd5b8335925060208401356001600160401b038082111561377957600080fd5b600080600080600060a0868803121561391857600080fd5b61392186613388565b945061392f60208701613388565b9350604086013592506060860135915060808601356001600160401b0381111561395857600080fd5b6138b288828901613679565b600080600080600060a0868803121561397c57600080fd5b61398586613388565b945061399360208701613388565b93506139a160408701613388565b92506139af60608701613388565b949793965091946080013592915050565b6020808252818101527f4f776e61626c653a2063616c6c6572206973206e6f7420746865206f776e6572604082015260600190565b634e487b7160e01b600052603260045260246000fd5b634e487b7160e01b600052601160045260246000fd5b600060018201613a3357613a33613a0b565b5060010190565b6020808252602c908201527f46756e6374696f6e206d7573742062652063616c6c6564207468726f7567682060408201526b19195b1959d85d1958d85b1b60a21b606082015260800190565b6020808252602c908201527f46756e6374696f6e206d7573742062652063616c6c6564207468726f7567682060408201526b6163746976652070726f787960a01b606082015260800190565b60008219821115613ae557613ae5613a0b565b500190565b600082821015613afc57613afc613a0b565b500390565b60208082526017908201527f41726773206c656e67746820646f6e2774206d61746368000000000000000000604082015260600190565b60208082526010908201526f14185d5cd8589b194e881c185d5cd95960821b604082015260600190565b60208082526010908201526f125b9d985b1a59081bdc99195c881a5960821b604082015260600190565b60208082526023908201527f4f7264657220697320616c72656164792066696c6c6564206f722063616e63656040820152621b195960ea1b606082015260800190565b6000816000190483118215151615613be957613be9613a0b565b500290565b600082613c0b57634e487b7160e01b600052601260045260246000fd5b500490565b600060208284031215613c2257600080fd5b81518015158114610c0857600080fd5b6001600160a01b0385811682528416602082015260a060408201819052600090613c5e908301856133f9565b8281036060840152613c7081856133f9565b83810360808501526002815261060f60f31b602082015290506040810161330b565b606081526000613ca560608301866133f9565b8281036020840152613cb781866133f9565b90508281036040840152613ccb81856133f9565b9695505050505050565b608081526000613ce860808301876133f9565b8281036020840152613cfa81876133f9565b90508281036040840152613d0e81866133f9565b9050828103606084015261330b81856133f9565b600060208284031215613d3457600080fd5b5051919050565b6001600160a01b03858116825284166020820152604081018390526060810182905260a06080820181905260029082015261060f60f31b60c0820152600060e08201613ccb565b604081526000613d9560408301856133f9565b828103602084015261309481856133f9565b60208082526026908201527f4f776e61626c653a206e6577206f776e657220697320746865207a65726f206160408201526564647265737360d01b606082015260800190565b6020808252602b908201527f496e697469616c697a61626c653a20636f6e7472616374206973206e6f74206960408201526a6e697469616c697a696e6760a81b606082015260800190565b60005b83811015613e53578181015183820152602001613e3b565b83811115612d4a5750506000910152565b60008251613e76818460208701613e38565b9190910192915050565b6020815260008251806020840152613e9f816040850160208701613e38565b601f01601f1916919091016040019291505056fe416464726573733a206c6f772d6c6576656c2064656c65676174652063616c6c206661696c6564a2646970667358221220fe4e06ce083460ed993dcc1a4bdcc90d60424b711d4afce6448a1b3261c1ee8264736f6c634300080d0033",
  "linkReferences": {},
  "deployedLinkReferences": {}
}