{
  "_format": "hh-sol-artifact-1",
  "contractName": "StakingRewards",
  "sourceName": "contracts/synthetix/StakingRewards.sol",
  "abi": [
    {
      "anonymous": false,
      "inputs": [
        {
          "indexed": true,
          "internalType": "address",
          "name": "previousOwner",
          "type": "address"
        },
        {
          "indexed": true,
          "internalType": "address",
          "name": "newOwner",
          "type": "address"
        }
      ],
      "name": "OwnershipTransferred",
      "type": "event"
    },
    {
      "anonymous": false,
      "inputs": [
        {
          "indexed": false,
          "internalType": "address",
          "name": "account",
          "type": "address"
        }
      ],
      "name": "Paused",
      "type": "event"
    },
    {
      "anonymous": false,
      "inputs": [
        {
          "indexed": false,
          "internalType": "address",
          "name": "token",
          "type": "address"
        },
        {
          "indexed": false,
          "internalType": "uint256",
          "name": "amount",
          "type": "uint256"
        }
      ],
      "name": "Recovered",
      "type": "event"
    },
    {
      "anonymous": false,
      "inputs": [
        {
          "indexed": false,
          "internalType": "uint256",
          "name": "reward",
          "type": "uint256"
        }
      ],
      "name": "RewardAdded",
      "type": "event"
    },
    {
      "anonymous": false,
      "inputs": [
        {
          "indexed": true,
          "internalType": "address",
          "name": "user",
          "type": "address"
        },
        {
          "indexed": false,
          "internalType": "uint256",
          "name": "reward",
          "type": "uint256"
        }
      ],
      "name": "RewardPaid",
      "type": "event"
    },
    {
      "anonymous": false,
      "inputs": [
        {
          "indexed": false,
          "internalType": "uint256",
          "name": "newDuration",
          "type": "uint256"
        }
      ],
      "name": "RewardsDurationUpdated",
      "type": "event"
    },
    {
      "anonymous": false,
      "inputs": [
        {
          "indexed": true,
          "internalType": "address",
          "name": "user",
          "type": "address"
        },
        {
          "indexed": false,
          "internalType": "uint256",
          "name": "tokenId",
          "type": "uint256"
        },
        {
          "indexed": false,
          "internalType": "uint256",
          "name": "quantity",
          "type": "uint256"
        },
        {
          "indexed": false,
          "internalType": "uint256",
          "name": "valuation",
          "type": "uint256"
        }
      ],
      "name": "Staked",
      "type": "event"
    },
    {
      "anonymous": false,
      "inputs": [
        {
          "indexed": false,
          "internalType": "address",
          "name": "account",
          "type": "address"
        }
      ],
      "name": "Unpaused",
      "type": "event"
    },
    {
      "anonymous": false,
      "inputs": [
        {
          "indexed": true,
          "internalType": "address",
          "name": "user",
          "type": "address"
        },
        {
          "indexed": false,
          "internalType": "uint256",
          "name": "tokenId",
          "type": "uint256"
        },
        {
          "indexed": false,
          "internalType": "uint256",
          "name": "quantity",
          "type": "uint256"
        },
        {
          "indexed": false,
          "internalType": "uint256",
          "name": "valuation",
          "type": "uint256"
        }
      ],
      "name": "Withdrawn",
      "type": "event"
    },
    {
      "inputs": [
        {
          "internalType": "address",
          "name": "account",
          "type": "address"
        }
      ],
      "name": "balanceOf",
      "outputs": [
        {
          "internalType": "uint256",
          "name": "",
          "type": "uint256"
        }
      ],
      "stateMutability": "view",
      "type": "function"
    },
    {
      "inputs": [
        {
          "internalType": "address",
          "name": "account",
          "type": "address"
        },
        {
          "internalType": "uint256",
          "name": "tokenId",
          "type": "uint256"
        }
      ],
      "name": "balanceOfNFT",
      "outputs": [
        {
          "internalType": "uint256",
          "name": "",
          "type": "uint256"
        }
      ],
      "stateMutability": "view",
      "type": "function"
    },
    {
      "inputs": [
        {
          "internalType": "address",
          "name": "account",
          "type": "address"
        }
      ],
      "name": "earned",
      "outputs": [
        {
          "internalType": "uint256",
          "name": "",
          "type": "uint256"
        }
      ],
      "stateMutability": "view",
      "type": "function"
    },
    {
      "inputs": [
        {
          "internalType": "uint256",
          "name": "tokenId",
          "type": "uint256"
        }
      ],
      "name": "exit",
      "outputs": [],
      "stateMutability": "nonpayable",
      "type": "function"
    },
    {
      "inputs": [],
      "name": "getReward",
      "outputs": [],
      "stateMutability": "nonpayable",
      "type": "function"
    },
    {
      "inputs": [],
      "name": "getRewardForDuration",
      "outputs": [
        {
          "internalType": "uint256",
          "name": "",
          "type": "uint256"
        }
      ],
      "stateMutability": "view",
      "type": "function"
    },
    {
      "inputs": [
        {
          "internalType": "address",
          "name": "account",
          "type": "address"
        }
      ],
      "name": "getStakedTokenIds",
      "outputs": [
        {
          "internalType": "uint256[]",
          "name": "",
          "type": "uint256[]"
        }
      ],
      "stateMutability": "view",
      "type": "function"
    },
    {
      "inputs": [
        {
          "internalType": "address",
          "name": "_rewardsDistribution",
          "type": "address"
        },
        {
          "internalType": "address",
          "name": "_rewardsToken",
          "type": "address"
        },
        {
          "internalType": "address",
          "name": "_stakingToken",
          "type": "address"
        },
        {
          "internalType": "address",
          "name": "gameContract",
          "type": "address"
        }
      ],
      "name": "initialize",
      "outputs": [],
      "stateMutability": "nonpayable",
      "type": "function"
    },
    {
      "inputs": [],
      "name": "lastTimeRewardApplicable",
      "outputs": [
        {
          "internalType": "uint256",
          "name": "",
          "type": "uint256"
        }
      ],
      "stateMutability": "view",
      "type": "function"
    },
    {
      "inputs": [],
      "name": "lastUpdateTime",
      "outputs": [
        {
          "internalType": "uint256",
          "name": "",
          "type": "uint256"
        }
      ],
      "stateMutability": "view",
      "type": "function"
    },
    {
      "inputs": [
        {
          "internalType": "uint256",
          "name": "reward",
          "type": "uint256"
        }
      ],
      "name": "notifyRewardAmount",
      "outputs": [],
      "stateMutability": "nonpayable",
      "type": "function"
    },
    {
      "inputs": [
        {
          "internalType": "address",
          "name": "",
          "type": "address"
        },
        {
          "internalType": "address",
          "name": "",
          "type": "address"
        },
        {
          "internalType": "uint256[]",
          "name": "",
          "type": "uint256[]"
        },
        {
          "internalType": "uint256[]",
          "name": "",
          "type": "uint256[]"
        },
        {
          "internalType": "bytes",
          "name": "",
          "type": "bytes"
        }
      ],
      "name": "onERC1155BatchReceived",
      "outputs": [
        {
          "internalType": "bytes4",
          "name": "",
          "type": "bytes4"
        }
      ],
      "stateMutability": "nonpayable",
      "type": "function"
    },
    {
      "inputs": [
        {
          "internalType": "address",
          "name": "",
          "type": "address"
        },
        {
          "internalType": "address",
          "name": "",
          "type": "address"
        },
        {
          "internalType": "uint256",
          "name": "",
          "type": "uint256"
        },
        {
          "internalType": "uint256",
          "name": "",
          "type": "uint256"
        },
        {
          "internalType": "bytes",
          "name": "",
          "type": "bytes"
        }
      ],
      "name": "onERC1155Received",
      "outputs": [
        {
          "internalType": "bytes4",
          "name": "",
          "type": "bytes4"
        }
      ],
      "stateMutability": "nonpayable",
      "type": "function"
    },
    {
      "inputs": [],
      "name": "owner",
      "outputs": [
        {
          "internalType": "address",
          "name": "",
          "type": "address"
        }
      ],
      "stateMutability": "view",
      "type": "function"
    },
    {
      "inputs": [],
      "name": "paused",
      "outputs": [
        {
          "internalType": "bool",
          "name": "",
          "type": "bool"
        }
      ],
      "stateMutability": "view",
      "type": "function"
    },
    {
      "inputs": [],
      "name": "periodFinish",
      "outputs": [
        {
          "internalType": "uint256",
          "name": "",
          "type": "uint256"
        }
      ],
      "stateMutability": "view",
      "type": "function"
    },
    {
      "inputs": [
        {
          "internalType": "address",
          "name": "tokenAddress",
          "type": "address"
        },
        {
          "internalType": "uint256",
          "name": "tokenAmount",
          "type": "uint256"
        }
      ],
      "name": "recoverERC20",
      "outputs": [],
      "stateMutability": "nonpayable",
      "type": "function"
    },
    {
      "inputs": [],
      "name": "renounceOwnership",
      "outputs": [],
      "stateMutability": "nonpayable",
      "type": "function"
    },
    {
      "inputs": [],
      "name": "rewardPerToken",
      "outputs": [
        {
          "internalType": "uint256",
          "name": "",
          "type": "uint256"
        }
      ],
      "stateMutability": "view",
      "type": "function"
    },
    {
      "inputs": [],
      "name": "rewardPerTokenStored",
      "outputs": [
        {
          "internalType": "uint256",
          "name": "",
          "type": "uint256"
        }
      ],
      "stateMutability": "view",
      "type": "function"
    },
    {
      "inputs": [],
      "name": "rewardRate",
      "outputs": [
        {
          "internalType": "uint256",
          "name": "",
          "type": "uint256"
        }
      ],
      "stateMutability": "view",
      "type": "function"
    },
    {
      "inputs": [
        {
          "internalType": "address",
          "name": "",
          "type": "address"
        }
      ],
      "name": "rewards",
      "outputs": [
        {
          "internalType": "uint256",
          "name": "",
          "type": "uint256"
        }
      ],
      "stateMutability": "view",
      "type": "function"
    },
    {
      "inputs": [],
      "name": "rewardsDistribution",
      "outputs": [
        {
          "internalType": "address",
          "name": "",
          "type": "address"
        }
      ],
      "stateMutability": "view",
      "type": "function"
    },
    {
      "inputs": [],
      "name": "rewardsDuration",
      "outputs": [
        {
          "internalType": "uint256",
          "name": "",
          "type": "uint256"
        }
      ],
      "stateMutability": "view",
      "type": "function"
    },
    {
      "inputs": [],
      "name": "rewardsToken",
      "outputs": [
        {
          "internalType": "contract IERC20",
          "name": "",
          "type": "address"
        }
      ],
      "stateMutability": "view",
      "type": "function"
    },
    {
      "inputs": [
        {
          "internalType": "address",
          "name": "_rewardsDistribution",
          "type": "address"
        }
      ],
      "name": "setRewardsDistribution",
      "outputs": [],
      "stateMutability": "nonpayable",
      "type": "function"
    },
    {
      "inputs": [
        {
          "internalType": "uint256",
          "name": "_rewardsDuration",
          "type": "uint256"
        }
      ],
      "name": "setRewardsDuration",
      "outputs": [],
      "stateMutability": "nonpayable",
      "type": "function"
    },
    {
      "inputs": [
        {
          "internalType": "uint256",
          "name": "tokenId",
          "type": "uint256"
        },
        {
          "internalType": "uint256",
          "name": "quantity",
          "type": "uint256"
        }
      ],
      "name": "stake",
      "outputs": [],
      "stateMutability": "nonpayable",
      "type": "function"
    },
    {
      "inputs": [],
      "name": "stakingToken",
      "outputs": [
        {
          "internalType": "contract IERC1155",
          "name": "",
          "type": "address"
        }
      ],
      "stateMutability": "view",
      "type": "function"
    },
    {
      "inputs": [
        {
          "internalType": "bytes4",
          "name": "interfaceId",
          "type": "bytes4"
        }
      ],
      "name": "supportsInterface",
      "outputs": [
        {
          "internalType": "bool",
          "name": "",
          "type": "bool"
        }
      ],
      "stateMutability": "view",
      "type": "function"
    },
    {
      "inputs": [],
      "name": "totalSupply",
      "outputs": [
        {
          "internalType": "uint256",
          "name": "",
          "type": "uint256"
        }
      ],
      "stateMutability": "view",
      "type": "function"
    },
    {
      "inputs": [
        {
          "internalType": "address",
          "name": "newOwner",
          "type": "address"
        }
      ],
      "name": "transferOwnership",
      "outputs": [],
      "stateMutability": "nonpayable",
      "type": "function"
    },
    {
      "inputs": [
        {
          "internalType": "uint256",
          "name": "timestamp",
          "type": "uint256"
        }
      ],
      "name": "updatePeriodFinish",
      "outputs": [],
      "stateMutability": "nonpayable",
      "type": "function"
    },
    {
      "inputs": [
        {
          "internalType": "address",
          "name": "",
          "type": "address"
        }
      ],
      "name": "userRewardPerTokenPaid",
      "outputs": [
        {
          "internalType": "uint256",
          "name": "",
          "type": "uint256"
        }
      ],
      "stateMutability": "view",
      "type": "function"
    },
    {
      "inputs": [
        {
          "internalType": "uint256",
          "name": "tokenId",
          "type": "uint256"
        },
        {
          "internalType": "uint256",
          "name": "quantity",
          "type": "uint256"
        }
      ],
      "name": "withdraw",
      "outputs": [],
      "stateMutability": "nonpayable",
      "type": "function"
    }
  ],
  "bytecode": "0x608060405234801561001057600080fd5b50612614806100206000396000f3fe608060405234801561001057600080fd5b50600436106102105760003560e01c806372f702f311610125578063c8f33c91116100ad578063df136d651161007c578063df136d6514610714578063ebe2b12b1461071c578063f23a6e6114610724578063f2fde38b146107ed578063f8c8765e1461081357610210565b8063c8f33c91146106df578063cc1a378f146106e7578063cd3daf9d14610704578063d1af0c7d1461070c57610210565b806380faa57d116100f457806380faa57d1461049f5780638980f11f146104a75780638b876347146104d35780638da5cb5b146104f9578063bc197c811461050157610210565b806372f702f31461044f5780637b0472f0146104575780637b0a47ee1461047a5780637f8661a11461048257610210565b80633c6b16ab116101a8578063556f6e6b11610177578063556f6e6b146103865780635c975abb146103a35780637047bc52146103ab57806370a0823114610421578063715018a61461044757610210565b80633c6b16ab1461031a5780633d18b912146103375780633fc6df6e1461033f578063441a3e701461036357610210565b806319762143116101e457806319762143146102b65780631c1f78eb146102de5780632aa4006a146102e6578063386a95251461031257610210565b80628cc2621461021557806301ffc9a71461024d5780630700037d1461028857806318160ddd146102ae575b600080fd5b61023b6004803603602081101561022b57600080fd5b50356001600160a01b0316610851565b60408051918252519081900360200190f35b6102746004803603602081101561026357600080fd5b50356001600160e01b0319166108d2565b604080519115158252519081900360200190f35b61023b6004803603602081101561029e57600080fd5b50356001600160a01b03166108f1565b61023b610904565b6102dc600480360360208110156102cc57600080fd5b50356001600160a01b031661090c565b005b61023b610990565b61023b600480360360408110156102fc57600080fd5b506001600160a01b0381351690602001356109b0565b61023b6109d9565b6102dc6004803603602081101561033057600080fd5b50356109e0565b6102dc610c25565b610347610e20565b604080516001600160a01b039092168252519081900360200190f35b6102dc6004803603604081101561037957600080fd5b5080359060200135610e2f565b6102dc6004803603602081101561039c57600080fd5b50356113b0565b61027461147a565b6103d1600480360360208110156103c157600080fd5b50356001600160a01b0316611483565b60408051602080825283518183015283519192839290830191858101910280838360005b8381101561040d5781810151838201526020016103f5565b505050509050019250505060405180910390f35b61023b6004803603602081101561043757600080fd5b50356001600160a01b0316611637565b6102dc611653565b6103476116ff565b6102dc6004803603604081101561046d57600080fd5b508035906020013561170f565b61023b611cce565b6102dc6004803603602081101561049857600080fd5b5035611cd5565b61023b611d28565b6102dc600480360360408110156104bd57600080fd5b506001600160a01b038135169060200135611d37565b61023b600480360360208110156104e957600080fd5b50356001600160a01b0316611e71565b610347611e84565b6106c2600480360360a081101561051757600080fd5b6001600160a01b038235811692602081013590911691810190606081016040820135600160201b81111561054a57600080fd5b82018360208201111561055c57600080fd5b803590602001918460208302840111600160201b8311171561057d57600080fd5b9190808060200260200160405190810160405280939291908181526020018383602002808284376000920191909152509295949360208101935035915050600160201b8111156105cc57600080fd5b8201836020820111156105de57600080fd5b803590602001918460208302840111600160201b831117156105ff57600080fd5b9190808060200260200160405190810160405280939291908181526020018383602002808284376000920191909152509295949360208101935035915050600160201b81111561064e57600080fd5b82018360208201111561066057600080fd5b803590602001918460018302840111600160201b8311171561068157600080fd5b91908080601f016020809104026020016040519081016040528093929190818152602001838380828437600092019190915250929550611e93945050505050565b604080516001600160e01b03199092168252519081900360200190f35b61023b611ea4565b6102dc600480360360208110156106fd57600080fd5b5035611eab565b61023b611f8a565b610347611fde565b61023b611fee565b61023b611ff5565b6106c2600480360360a081101561073a57600080fd5b6001600160a01b03823581169260208101359091169160408201359160608101359181019060a081016080820135600160201b81111561077957600080fd5b82018360208201111561078b57600080fd5b803590602001918460018302840111600160201b831117156107ac57600080fd5b91908080601f016020809104026020016040519081016040528093929190818152602001838380828437600092019190915250929550611ffc945050505050565b6102dc6004803603602081101561080357600080fd5b50356001600160a01b031661200d565b6102dc6004803603608081101561082957600080fd5b506001600160a01b038135811691602081013582169160408201358116916060013516612110565b6001600160a01b038116600090815261016860209081526040808320546101679092528220546108cc91906108c690670de0b6b3a7640000906108c0906108a09061089a611f8a565b9061221f565b6001600160a01b038816600090815261016b60205260409020549061227c565b906122dc565b90612343565b92915050565b6001600160e01b031916600090815260ca602052604090205460ff1690565b6101686020526000908152604090205481565b61016a545b90565b61091461239d565b6001600160a01b0316610925611e84565b6001600160a01b03161461096e576040805162461bcd60e51b81526020600482018190526024820152600080516020612595833981519152604482015290519081900360640190fd5b606580546001600160a01b0319166001600160a01b0392909216919091179055565b60006109ab610164546101635461227c90919063ffffffff16565b905090565b6001600160a01b0391909116600090815261016960209081526040808320938352929052205490565b6101645481565b6065546001600160a01b03163314610a295760405162461bcd60e51b815260040180806020018281038252602a8152602001806125b5602a913960400191505060405180910390fd5b6000610a33611f8a565b61016655610a3f611d28565b610165556001600160a01b03811615610a8a57610a5b81610851565b6001600160a01b0382166000908152610168602090815260408083209390935561016654610167909152919020555b610162544210610aac5761016454610aa39083906122dc565b61016355610af3565b61016254600090610abd904261221f565b90506000610ad7610163548361227c90919063ffffffff16565b61016454909150610aec906108c08684612343565b6101635550505b61016054604080516370a0823160e01b815230600482015290516000926001600160a01b0316916370a08231916024808301926020929190829003018186803b158015610b3f57600080fd5b505afa158015610b53573d6000803e3d6000fd5b505050506040513d6020811015610b6957600080fd5b505161016454909150610b7d9082906122dc565b610163541115610bd4576040805162461bcd60e51b815260206004820152601860248201527f50726f76696465642072657761726420746f6f20686967680000000000000000604482015290519081900360640190fd5b4261016581905561016454610be99190612343565b610162556040805184815290517fde88a922e0d3b88b24e9623efeb464919c6bf9f66857a65e2bfcf2ce87a9433d9181900360200190a1505050565b60026066541415610c7d576040805162461bcd60e51b815260206004820152601f60248201527f5265656e7472616e637947756172643a207265656e7472616e742063616c6c00604482015290519081900360640190fd5b6002606655610c8a61239d565b610c92611f8a565b61016655610c9e611d28565b610165556001600160a01b03811615610ce957610cba81610851565b6001600160a01b0382166000908152610168602090815260408083209390935561016654610167909152919020555b60006101686000610cf861239d565b6001600160a01b0316815260208101919091526040016000205490508015610e175760006101686000610d2961239d565b6001600160a01b039081168252602082019290925260400160002091909155610160541663a9059cbb610d5a61239d565b836040518363ffffffff1660e01b815260040180836001600160a01b0316815260200182815260200192505050602060405180830381600087803b158015610da157600080fd5b505af1158015610db5573d6000803e3d6000fd5b505050506040513d6020811015610dcb57600080fd5b50610dd6905061239d565b6001600160a01b03167fe2403640ba68fed3a2f88b7557551d1993f84b99bb10ff833f0cf8db0c5e0486826040518082815260200191505060405180910390a25b50506001606655565b6065546001600160a01b031681565b60026066541415610e87576040805162461bcd60e51b815260206004820152601f60248201527f5265656e7472616e637947756172643a207265656e7472616e742063616c6c00604482015290519081900360640190fd5b6002606655610e9461239d565b610e9c611f8a565b61016655610ea8611d28565b610165556001600160a01b03811615610ef357610ec481610851565b6001600160a01b0382166000908152610168602090815260408083209390935561016654610167909152919020555b61016c54604080516376aed2e160e01b81526004810186905290516000926001600160a01b0316916376aed2e1916024808301926020929190829003018186803b158015610f4057600080fd5b505afa158015610f54573d6000803e3d6000fd5b505050506040513d6020811015610f6a57600080fd5b505190506000600160ff83161480610f8557508160ff166002145b15610f9d57610f96846103e861227c565b9050611183565b8160ff16600314156111835761016c546040805163f47d54bd60e01b815260048101889052905160609283926001600160a01b039091169163f47d54bd91602480820192600092909190829003018186803b158015610ffb57600080fd5b505afa15801561100f573d6000803e3d6000fd5b505050506040513d6000823e601f3d908101601f19168201604090815281101561103857600080fd5b8101908080516040519392919084600160201b82111561105757600080fd5b90830190602082018581111561106c57600080fd5b82518660208202830111600160201b8211171561108857600080fd5b82525081516020918201928201910280838360005b838110156110b557818101518382015260200161109d565b5050505090500160405260200180516040519392919084600160201b8211156110dd57600080fd5b9083019060208201858111156110f257600080fd5b82518660208202830111600160201b8211171561110e57600080fd5b82525081516020918201928201910280838360005b8381101561113b578181015183820152602001611123565b5050505091909101604052505083519395509193506000915061116a9050611163838061227c565b839061227c565b905061117c6103e86108c6838b61227c565b9450505050505b600081116111cc576040805162461bcd60e51b8152602060048201526011602482015270043616e6e6f74207769746864726177203607c1b604482015290519081900360640190fd5b61120a8461016960006111dd61239d565b6001600160a01b03168152602080820192909252604090810160009081208a82529092529020549061221f565b610169600061121761239d565b6001600160a01b031681526020808201929092526040908101600090812089825290925290205561016a5461124c908261221f565b61016a556112818161016b600061126161239d565b6001600160a01b031681526020810191909152604001600020549061221f565b61016b600061128e61239d565b6001600160a01b039081168252602082019290925260400160002091909155610161541663f242432a306112c061239d565b604080516001600160e01b031960e086901b1681526001600160a01b039384166004820152919092166024820152604481018990526064810188905260a06084820152600260a482015261060f60f31b60c4820152905160e480830192600092919082900301818387803b15801561133757600080fd5b505af115801561134b573d6000803e3d6000fd5b5050505061135761239d565b604080518781526020810187905280820184905290516001600160a01b0392909216917f75e161b3e824b114fc1a33274bd7091918dd4e639cede50b78b15a4eea956a219181900360600190a250506001606655505050565b6113b861239d565b6001600160a01b03166113c9611e84565b6001600160a01b031614611412576040805162461bcd60e51b81526020600482018190526024820152600080516020612595833981519152604482015290519081900360640190fd5b600061141c611f8a565b61016655611428611d28565b610165556001600160a01b038116156114735761144481610851565b6001600160a01b0382166000908152610168602090815260408083209390935561016654610167909152919020555b5061016255565b60985460ff1690565b6060600061016160009054906101000a90046001600160a01b03166001600160a01b031663832efb5a6040518163ffffffff1660e01b815260040160206040518083038186803b1580156114d657600080fd5b505afa1580156114ea573d6000803e3d6000fd5b505050506040513d602081101561150057600080fd5b5051905060608167ffffffffffffffff8111801561151d57600080fd5b50604051908082528060200260200182016040528015611547578160200160208202803683370190505b5090506000805b838110156115a7576001600160a01b0386166000908152610169602090815260408083208484529091529020541561159f578083838151811061158d57fe5b60209081029190910101526001909101905b60010161154e565b5060608167ffffffffffffffff811180156115c157600080fd5b506040519080825280602002602001820160405280156115eb578160200160208202803683370190505b50905060005b815181101561162d5783818151811061160657fe5b602002602001015182828151811061161a57fe5b60209081029190910101526001016115f1565b5095945050505050565b6001600160a01b0316600090815261016b602052604090205490565b61165b61239d565b6001600160a01b031661166c611e84565b6001600160a01b0316146116b5576040805162461bcd60e51b81526020600482018190526024820152600080516020612595833981519152604482015290519081900360640190fd5b6033546040516000916001600160a01b0316907f8be0079c531659141344cd1fd0a4f28419497f9722a3daafe3b4186f6b6457e0908390a3603380546001600160a01b0319169055565b610161546001600160a01b031681565b60026066541415611767576040805162461bcd60e51b815260206004820152601f60248201527f5265656e7472616e637947756172643a207265656e7472616e742063616c6c00604482015290519081900360640190fd5b600260665561177461147a565b156117b9576040805162461bcd60e51b815260206004820152601060248201526f14185d5cd8589b194e881c185d5cd95960821b604482015290519081900360640190fd5b6117c161239d565b6117c9611f8a565b610166556117d5611d28565b610165556001600160a01b03811615611820576117f181610851565b6001600160a01b0382166000908152610168602090815260408083209390935561016654610167909152919020555b61016c54604080516376aed2e160e01b81526004810186905290516000926001600160a01b0316916376aed2e1916024808301926020929190829003018186803b15801561186d57600080fd5b505afa158015611881573d6000803e3d6000fd5b505050506040513d602081101561189757600080fd5b505190506000600160ff831614806118b257508160ff166002145b156118ca576118c3846103e861227c565b9050611aa9565b8160ff1660031415611aa95761016c546040805163f47d54bd60e01b815260048101889052905160609283926001600160a01b039091169163f47d54bd91602480820192600092909190829003018186803b15801561192857600080fd5b505afa15801561193c573d6000803e3d6000fd5b505050506040513d6000823e601f3d908101601f19168201604090815281101561196557600080fd5b8101908080516040519392919084600160201b82111561198457600080fd5b90830190602082018581111561199957600080fd5b82518660208202830111600160201b821117156119b557600080fd5b82525081516020918201928201910280838360005b838110156119e25781810151838201526020016119ca565b5050505090500160405260200180516040519392919084600160201b821115611a0a57600080fd5b908301906020820185811115611a1f57600080fd5b82518660208202830111600160201b82111715611a3b57600080fd5b82525081516020918201928201910280838360005b83811015611a68578181015183820152602001611a50565b50505050919091016040525050835193955091935060009150611a909050611163838061227c565b9050611aa26103e86108c6838b61227c565b9450505050505b60008111611aef576040805162461bcd60e51b815260206004820152600e60248201526d043616e6e6f74207374616b6520360941b604482015290519081900360640190fd5b61016a54611afd9082612343565b61016a55611b328161016b6000611b1261239d565b6001600160a01b0316815260208101919091526040016000205490612343565b61016b6000611b3f61239d565b6001600160a01b039081168252602082019290925260400160002091909155610161541663f242432a611b7061239d565b604080516001600160e01b031960e085901b1681526001600160a01b039092166004830152306024830152604482018990526064820188905260a06084830152600260a483015261060f60f31b60c48301525160e480830192600092919082900301818387803b158015611be357600080fd5b505af1158015611bf7573d6000803e3d6000fd5b50505050611c39846101696000611c0c61239d565b6001600160a01b03168152602080820192909252604090810160009081208a825290925290205490612343565b6101696000611c4661239d565b6001600160a01b0316815260208082019290925260409081016000908120898252909252902055611c7561239d565b604080518781526020810187905280820184905290516001600160a01b0392909216917fb4caaf29adda3eefee3ad552a8e85058589bf834c7466cae4ee58787f70589ed9181900360600190a250506001606655505050565b6101635481565b611d1d816101696000611ce661239d565b6001600160a01b03166001600160a01b03168152602001908152602001600020600084815260200190815260200160002054610e2f565b611d25610c25565b50565b60006109ab42610162546123a1565b611d3f61239d565b6001600160a01b0316611d50611e84565b6001600160a01b031614611d99576040805162461bcd60e51b81526020600482018190526024820152600080516020612595833981519152604482015290519081900360640190fd5b6000611da3611e84565b9050826001600160a01b031663a9059cbb82846040518363ffffffff1660e01b815260040180836001600160a01b0316815260200182815260200192505050602060405180830381600087803b158015611dfc57600080fd5b505af1158015611e10573d6000803e3d6000fd5b505050506040513d6020811015611e2657600080fd5b5050604080516001600160a01b03851681526020810184905281517f8c1256b8896378cd5044f80c202f9772b9d77dc85c8a6eb51967210b09bfaa28929181900390910190a1505050565b6101676020526000908152604090205481565b6033546001600160a01b031690565b63bc197c8160e01b95945050505050565b6101655481565b611eb361239d565b6001600160a01b0316611ec4611e84565b6001600160a01b031614611f0d576040805162461bcd60e51b81526020600482018190526024820152600080516020612595833981519152604482015290519081900360640190fd5b610162544211611f4e5760405162461bcd60e51b81526004018080602001828103825260588152602001806124c86058913960600191505060405180910390fd5b6101648190556040805182815290517ffb46ca5a5e06d4540d6387b930a7c978bce0db5f449ec6b3f5d07c6e1d44f2d39181900360200190a150565b600061016a5460001415611fa2575061016654610909565b6109ab611fd461016a546108c0670de0b6b3a7640000611fce61016354611fce6101655461089a611d28565b9061227c565b6101665490612343565b610160546001600160a01b031681565b6101665481565b6101625481565b63f23a6e6160e01b95945050505050565b61201561239d565b6001600160a01b0316612026611e84565b6001600160a01b03161461206f576040805162461bcd60e51b81526020600482018190526024820152600080516020612595833981519152604482015290519081900360640190fd5b6001600160a01b0381166120b45760405162461bcd60e51b81526004018080602001828103825260268152602001806125206026913960400191505060405180910390fd5b6033546040516001600160a01b038084169216907f8be0079c531659141344cd1fd0a4f28419497f9722a3daafe3b4186f6b6457e090600090a3603380546001600160a01b0319166001600160a01b0392909216919091179055565b600054610100900460ff168061212957506121296123b7565b80612137575060005460ff16155b6121725760405162461bcd60e51b815260040180806020018281038252602e815260200180612546602e913960400191505060405180910390fd5b600054610100900460ff1615801561219d576000805460ff1961ff0019909116610100171660011790555b6121a56123c8565b61016080546001600160a01b038087166001600160a01b03199283161790925561016180548684169083161790556065805488841690831617905561016c80549285169290911691909117905560006101628190556101635562127500610164558015612218576000805461ff00191690555b5050505050565b600082821115612276576040805162461bcd60e51b815260206004820152601e60248201527f536166654d6174683a207375627472616374696f6e206f766572666c6f770000604482015290519081900360640190fd5b50900390565b60008261228b575060006108cc565b8282028284828161229857fe5b04146122d55760405162461bcd60e51b81526004018080602001828103825260218152602001806125746021913960400191505060405180910390fd5b9392505050565b6000808211612332576040805162461bcd60e51b815260206004820152601a60248201527f536166654d6174683a206469766973696f6e206279207a65726f000000000000604482015290519081900360640190fd5b81838161233b57fe5b049392505050565b6000828201838110156122d5576040805162461bcd60e51b815260206004820152601b60248201527f536166654d6174683a206164646974696f6e206f766572666c6f770000000000604482015290519081900360640190fd5b3390565b60008183106123b057816122d5565b5090919050565b60006123c2306124c1565b15905090565b600054610100900460ff16806123e157506123e16123b7565b806123ef575060005460ff16155b61242a5760405162461bcd60e51b815260040180806020018281038252602e815260200180612546602e913960400191505060405180910390fd5b600054610100900460ff16158015612455576000805460ff1961ff0019909116610100171660011790555b600061245f61239d565b603380546001600160a01b0319166001600160a01b038316908117909155604051919250906000907f8be0079c531659141344cd1fd0a4f28419497f9722a3daafe3b4186f6b6457e0908290a3508015611d25576000805461ff001916905550565b3b15159056fe50726576696f7573207265776172647320706572696f64206d75737420626520636f6d706c657465206265666f7265206368616e67696e6720746865206475726174696f6e20666f7220746865206e657720706572696f644f776e61626c653a206e6577206f776e657220697320746865207a65726f2061646472657373496e697469616c697a61626c653a20636f6e747261637420697320616c726561647920696e697469616c697a6564536166654d6174683a206d756c7469706c69636174696f6e206f766572666c6f774f776e61626c653a2063616c6c6572206973206e6f7420746865206f776e657243616c6c6572206973206e6f742052657761726473446973747269627574696f6e20636f6e7472616374a2646970667358221220862a601ca272b1dcfb61314d633873c4f91b84046f2de23c256baef95c1dd9f464736f6c63430007000033",
  "linkReferences": {},
  "deployedLinkReferences": {}
}